{
  "_format": "hh-sol-artifact-1",
  "contractName": "CoFiXVaultForStaking",
  "sourceName": "contracts/CoFiXVaultForStaking.sol",
  "abi": [
    {
      "inputs": [],
      "stateMutability": "nonpayable",
      "type": "constructor"
    },
    {
      "inputs": [],
      "name": "_governance",
      "outputs": [
        {
          "internalType": "address",
          "name": "",
          "type": "address"
        }
      ],
      "stateMutability": "view",
      "type": "function"
    },
    {
      "inputs": [
        {
          "internalType": "address",
          "name": "xtoken",
          "type": "address"
        },
        {
          "internalType": "address",
          "name": "addr",
          "type": "address"
        }
      ],
      "name": "balanceOf",
      "outputs": [
        {
          "internalType": "uint256",
          "name": "",
          "type": "uint256"
        }
      ],
      "stateMutability": "view",
      "type": "function"
    },
    {
      "inputs": [
        {
          "internalType": "address[]",
          "name": "xtokens",
          "type": "address[]"
        },
        {
          "internalType": "uint256[]",
          "name": "weights",
          "type": "uint256[]"
        }
      ],
      "name": "batchSetPoolWeight",
      "outputs": [],
      "stateMutability": "nonpayable",
      "type": "function"
    },
    {
      "inputs": [
        {
          "internalType": "address",
          "name": "xtoken",
          "type": "address"
        }
      ],
      "name": "calcReward",
      "outputs": [
        {
          "internalType": "uint256",
          "name": "newReward",
          "type": "uint256"
        },
        {
          "internalType": "uint256",
          "name": "rewardPerToken",
          "type": "uint256"
        }
      ],
      "stateMutability": "view",
      "type": "function"
    },
    {
      "inputs": [
        {
          "internalType": "address",
          "name": "xtoken",
          "type": "address"
        },
        {
          "internalType": "address",
          "name": "addr",
          "type": "address"
        }
      ],
      "name": "earned",
      "outputs": [
        {
          "internalType": "uint256",
          "name": "",
          "type": "uint256"
        }
      ],
      "stateMutability": "view",
      "type": "function"
    },
    {
      "inputs": [],
      "name": "getConfig",
      "outputs": [
        {
          "components": [
            {
              "internalType": "uint96",
              "name": "cofiRate",
              "type": "uint96"
            }
          ],
          "internalType": "struct ICoFiXVaultForStaking.Config",
          "name": "",
          "type": "tuple"
        }
      ],
      "stateMutability": "view",
      "type": "function"
    },
    {
      "inputs": [
        {
          "internalType": "address",
          "name": "xtoken",
          "type": "address"
        }
      ],
      "name": "getReward",
      "outputs": [],
      "stateMutability": "nonpayable",
      "type": "function"
    },
    {
      "inputs": [
        {
          "internalType": "address",
          "name": "governance",
          "type": "address"
        }
      ],
      "name": "initialize",
      "outputs": [],
      "stateMutability": "nonpayable",
      "type": "function"
    },
    {
      "inputs": [
        {
          "internalType": "address",
          "name": "tokenAddress",
          "type": "address"
        },
        {
          "internalType": "uint256",
          "name": "value",
          "type": "uint256"
        }
      ],
      "name": "migrate",
      "outputs": [],
      "stateMutability": "nonpayable",
      "type": "function"
    },
    {
      "inputs": [
        {
          "internalType": "address",
          "name": "xtoken",
          "type": "address"
        },
        {
          "internalType": "address",
          "name": "to",
          "type": "address"
        },
        {
          "internalType": "uint256",
          "name": "amount",
          "type": "uint256"
        }
      ],
      "name": "routerStake",
      "outputs": [],
      "stateMutability": "nonpayable",
      "type": "function"
    },
    {
      "inputs": [
        {
          "components": [
            {
              "internalType": "uint96",
              "name": "cofiRate",
              "type": "uint96"
            }
          ],
          "internalType": "struct ICoFiXVaultForStaking.Config",
          "name": "config",
          "type": "tuple"
        }
      ],
      "name": "setConfig",
      "outputs": [],
      "stateMutability": "nonpayable",
      "type": "function"
    },
    {
      "inputs": [
        {
          "internalType": "address",
          "name": "xtoken",
          "type": "address"
        },
        {
          "internalType": "uint256",
          "name": "amount",
          "type": "uint256"
        }
      ],
      "name": "stake",
      "outputs": [],
      "stateMutability": "nonpayable",
      "type": "function"
    },
    {
      "inputs": [
        {
          "internalType": "address",
          "name": "xtoken",
          "type": "address"
        }
      ],
      "name": "totalStakedOf",
      "outputs": [
        {
          "internalType": "uint256",
          "name": "",
          "type": "uint256"
        }
      ],
      "stateMutability": "view",
      "type": "function"
    },
    {
      "inputs": [
        {
          "internalType": "address",
          "name": "newGovernance",
          "type": "address"
        }
      ],
      "name": "update",
      "outputs": [],
      "stateMutability": "nonpayable",
      "type": "function"
    },
    {
      "inputs": [
        {
          "internalType": "address",
          "name": "xtoken",
          "type": "address"
        },
        {
          "internalType": "uint256",
          "name": "amount",
          "type": "uint256"
        }
      ],
      "name": "withdraw",
      "outputs": [],
      "stateMutability": "nonpayable",
      "type": "function"
    }
  ],
  "bytecode": "0x608060405234801561001057600080fd5b506121ac806100206000396000f3fe608060405234801561001057600080fd5b50600436106100f55760003560e01c8063a11c3b0211610097578063c3f909d411610066578063c3f909d41461024d578063c4d66de814610284578063f3fef3a314610297578063f7888aec146102aa57600080fd5b8063a11c3b02146101db578063ad68ebf714610214578063adc9772e14610227578063c00007b01461023a57600080fd5b8063348964bd116100d3578063348964bd1461017a5780633a61738d1461018d5780633be8b768146101b55780639498aaa7146101c857600080fd5b80631c1b8772146100fa5780631c2f3e3d1461010f578063211dc32d14610159575b600080fd5b61010d610108366004611d62565b6102f3565b005b60025461012f9073ffffffffffffffffffffffffffffffffffffffff1681565b60405173ffffffffffffffffffffffffffffffffffffffff90911681526020015b60405180910390f35b61016c610167366004611da3565b6103c2565b604051908152602001610150565b61010d610188366004611e63565b61060d565b6101a061019b366004611d62565b61076b565b60408051928352602083019190915201610150565b61010d6101c3366004611ed0565b610909565b61010d6101d6366004611f5e565b610c01565b61016c6101e9366004611d62565b73ffffffffffffffffffffffffffffffffffffffff1660009081526005602052604090206001015490565b61010d610222366004611ea4565b610d21565b61010d610235366004611ea4565b610f81565b61010d610248366004611d62565b611063565b60408051602080820183526000909152815180820183526003546bffffffffffffffffffffffff1690819052915191825201610150565b61010d610292366004611d62565b6110f3565b61010d6102a5366004611ea4565b6111ba565b61016c6102b8366004611da3565b73ffffffffffffffffffffffffffffffffffffffff918216600090815260056020908152604080832093851683526003909301905220541690565b6102fc8161129c565b8073ffffffffffffffffffffffffffffffffffffffff1663448e652a6040518163ffffffff1660e01b815260040160206040518083038186803b15801561034257600080fd5b505afa158015610356573d6000803e3d6000fd5b505050506040513d601f19601f8201168201806040525081019061037a9190611d86565b600480547fffffffffffffffffffffffff00000000000000000000000000000000000000001673ffffffffffffffffffffffffffffffffffffffff9290921691909117905550565b73ffffffffffffffffffffffffffffffffffffffff82166000908152600560205260408120816103f1826114ef565b73ffffffffffffffffffffffffffffffffffffffff8581166000908152600385016020908152604091829020825180840190935254808416808452740100000000000000000000000000000000000000009091046bffffffffffffffffffffffff1691830191909152600180870154905494955091939092908116908916141561054b576002850154600480546040517f9c5afa1600000000000000000000000000000000000000000000000000000000815273ffffffffffffffffffffffffffffffffffffffff8c8116938201939093526fffffffffffffffffffffffffffffffff90931692911690639c5afa169060240160206040518083038186803b1580156104fc57600080fd5b505afa158015610510573d6000803e3d6000fd5b505050506040513d601f19601f820116820180604052508101906105349190611f76565b61053e919061205a565b6105489085611fca565b93505b600285810154600091700100000000000000000000000000000000909104600681901c6b03ffffffffffffffffffffff16911b60fc161b905081156105b4578161059d86670de0b6b3a764000061201d565b6105a79190611fe2565b6105b19082611fca565b90505b6020840151670de0b6b3a7640000908490600681901c6b03ffffffffffffffffffffff1660029190911b60fc161b6105ec908461205a565b6105f6919061201d565b6106009190611fe2565b9998505050505050505050565b60045473ffffffffffffffffffffffffffffffffffffffff163314610693576040517f08c379a000000000000000000000000000000000000000000000000000000000815260206004820152601f60248201527f436f466958506169723a204f6e6c7920666f7220436f466958526f757465720060448201526064015b60405180910390fd5b73ffffffffffffffffffffffffffffffffffffffff83166000908152600560205260408120906106c485838661158f565b9050828260010160008282546106da9190611fca565b9091555050805161070290849073ffffffffffffffffffffffffffffffffffffffff16611fca565b73ffffffffffffffffffffffffffffffffffffffff90811682529384166000908152600390920160209081526040909220815192909101516bffffffffffffffffffffffff16740100000000000000000000000000000000000000000291909316179091555050565b73ffffffffffffffffffffffffffffffffffffffff81166000908152600560205260408120819061079b816114ef565b60018083015490549194509073ffffffffffffffffffffffffffffffffffffffff8681169116141561089d576002820154600480546040517f9c5afa1600000000000000000000000000000000000000000000000000000000815273ffffffffffffffffffffffffffffffffffffffff898116938201939093526fffffffffffffffffffffffffffffffff90931692911690639c5afa169060240160206040518083038186803b15801561084e57600080fd5b505afa158015610862573d6000803e3d6000fd5b505050506040513d601f19601f820116820180604052508101906108869190611f76565b610890919061205a565b61089a9085611fca565b93505b6002828101547001000000000000000000000000000000009004600681901c6b03ffffffffffffffffffffff16911b60fc161b9250801561090257806108eb85670de0b6b3a764000061201d565b6108f59190611fe2565b6108ff9084611fca565b92505b5050915091565b6002546040517f91e1472b0000000000000000000000000000000000000000000000000000000081523360048201526000602482015273ffffffffffffffffffffffffffffffffffffffff909116906391e1472b9060440160206040518083038186803b15801561097957600080fd5b505afa15801561098d573d6000803e3d6000fd5b505050506040513d601f19601f820116820180604052508101906109b19190611f3c565b610a17576040517f08c379a000000000000000000000000000000000000000000000000000000000815260206004820152600a60248201527f436f4669583a21676f7600000000000000000000000000000000000000000000604482015260640161068a565b82818114610aa7576040517f08c379a000000000000000000000000000000000000000000000000000000000815260206004820152602260248201527f436f4669585661756c74466f725374616b696e673a206d69736d61746368206c60448201527f656e000000000000000000000000000000000000000000000000000000000000606482015260840161068a565b60005b81811015610bf9576000868683818110610ac657610ac66120d9565b9050602002016020810190610adb9190611d62565b73ffffffffffffffffffffffffffffffffffffffff161415610b7e576040517f08c379a0000000000000000000000000000000000000000000000000000000008152602060048201526024808201527f436f4669585661756c74466f725374616b696e673a20696e76616c696420787460448201527f6f6b656e00000000000000000000000000000000000000000000000000000000606482015260840161068a565b838382818110610b9057610b906120d9565b9050602002013560056000888885818110610bad57610bad6120d9565b9050602002016020810190610bc29190611d62565b73ffffffffffffffffffffffffffffffffffffffff168152602081019190915260400160002055610bf281612071565b9050610aaa565b505050505050565b6002546040517f91e1472b0000000000000000000000000000000000000000000000000000000081523360048201526000602482015273ffffffffffffffffffffffffffffffffffffffff909116906391e1472b9060440160206040518083038186803b158015610c7157600080fd5b505afa158015610c85573d6000803e3d6000fd5b505050506040513d601f19601f82011682018060405250810190610ca99190611f3c565b610d0f576040517f08c379a000000000000000000000000000000000000000000000000000000000815260206004820152600a60248201527f436f4669583a21676f7600000000000000000000000000000000000000000000604482015260640161068a565b806003610d1c8282612108565b505050565b6002546040517f91e1472b0000000000000000000000000000000000000000000000000000000081523360048201526000602482015273ffffffffffffffffffffffffffffffffffffffff909116906391e1472b9060440160206040518083038186803b158015610d9157600080fd5b505afa158015610da5573d6000803e3d6000fd5b505050506040513d601f19601f82011682018060405250810190610dc99190611f3c565b610e2f576040517f08c379a000000000000000000000000000000000000000000000000000000000815260206004820152600a60248201527f436f4669583a21676f7600000000000000000000000000000000000000000000604482015260640161068a565b600254604080517f96776492000000000000000000000000000000000000000000000000000000008152905160009273ffffffffffffffffffffffffffffffffffffffff16916396776492916004808301926020929190829003018186803b158015610e9a57600080fd5b505afa158015610eae573d6000803e3d6000fd5b505050506040513d601f19601f82011682018060405250810190610ed29190611d86565b905073ffffffffffffffffffffffffffffffffffffffff8316610f76576040517fdaa78c0f0000000000000000000000000000000000000000000000000000000081526000600482015273ffffffffffffffffffffffffffffffffffffffff82169063daa78c0f9084906024016000604051808303818588803b158015610f5857600080fd5b505af1158015610f6c573d6000803e3d6000fd5b5050505050505050565b610d1c838284611733565b73ffffffffffffffffffffffffffffffffffffffff8216600090815260056020526040812090610fb284833361158f565b9050610fc0843330866118a3565b82826001016000828254610fd49190611fca565b90915550508051610ffc90849073ffffffffffffffffffffffffffffffffffffffff16611fca565b73ffffffffffffffffffffffffffffffffffffffff9081168252336000908152600390930160209081526040909320825193909201516bffffffffffffffffffffffff16740100000000000000000000000000000000000000000292169190911790555050565b73ffffffffffffffffffffffffffffffffffffffff8116600090815260056020526040902061109382823361158f565b336000908152600390920160209081526040909220815191909201516bffffffffffffffffffffffff16740100000000000000000000000000000000000000000273ffffffffffffffffffffffffffffffffffffffff9190911617905550565b60025473ffffffffffffffffffffffffffffffffffffffff1615611173576040517f08c379a000000000000000000000000000000000000000000000000000000000815260206004820152601160248201527f436f4669583a21696e697469616c697a65000000000000000000000000000000604482015260640161068a565b600280547fffffffffffffffffffffffff00000000000000000000000000000000000000001673ffffffffffffffffffffffffffffffffffffffff92909216919091179055565b73ffffffffffffffffffffffffffffffffffffffff82166000908152600560205260408120906111eb84833361158f565b905082826001016000828254611201919061205a565b9091555050805161122990849073ffffffffffffffffffffffffffffffffffffffff1661205a565b73ffffffffffffffffffffffffffffffffffffffff908116825233600081815260038501602090815260409091208451918501516bffffffffffffffffffffffff167401000000000000000000000000000000000000000002919093161790915561129690859085611733565b50505050565b60025473ffffffffffffffffffffffffffffffffffffffff163381148061136257506040517f91e1472b0000000000000000000000000000000000000000000000000000000081523360048201526000602482015273ffffffffffffffffffffffffffffffffffffffff8216906391e1472b9060440160206040518083038186803b15801561132a57600080fd5b505afa15801561133e573d6000803e3d6000fd5b505050506040513d601f19601f820116820180604052508101906113629190611f3c565b6113c8576040517f08c379a000000000000000000000000000000000000000000000000000000000815260206004820152600a60248201527f436f4669583a21676f7600000000000000000000000000000000000000000000604482015260640161068a565b600280547fffffffffffffffffffffffff00000000000000000000000000000000000000001673ffffffffffffffffffffffffffffffffffffffff8416908117909155604080517f746b56f9000000000000000000000000000000000000000000000000000000008152905163746b56f99160048082019260c092909190829003018186803b15801561145a57600080fd5b505afa15801561146e573d6000803e3d6000fd5b505050506040513d601f19601f820116820180604052508101906114929190611ddc565b50506001805473ffffffffffffffffffffffffffffffffffffffff9485167fffffffffffffffffffffffff000000000000000000000000000000000000000091821617909155600080549590941694169390931790915550505050565b8054600354600091633b9aca009161019091906bffffffffffffffffffffffff1661152261151d864361205a565b611a39565b6002870154611557907c0100000000000000000000000000000000000000000000000000000000900463ffffffff164361205a565b611561919061201d565b61156b919061201d565b611575919061201d565b61157f9190611fe2565b6115899190611fe2565b92915050565b6040805180820182526000808252602091820181905273ffffffffffffffffffffffffffffffffffffffff848116825260038601835283822084518086019095525490811684527401000000000000000000000000000000000000000090046bffffffffffffffffffffffff169183019190915261160d8585611a82565b8251602084015191925073ffffffffffffffffffffffffffffffffffffffff1690600090670de0b6b3a7640000908390600681901c6b03ffffffffffffffffffffff1660029190911b60fc161b611664908661205a565b61166e919061201d565b6116789190611fe2565b905061168383611cd9565b6bffffffffffffffffffffffff1660208501528015611729576000546040517f40c10f1900000000000000000000000000000000000000000000000000000000815273ffffffffffffffffffffffffffffffffffffffff878116600483015260248201849052909116906340c10f1990604401600060405180830381600087803b15801561171057600080fd5b505af1158015611724573d6000803e3d6000fd5b505050505b5050509392505050565b6040805173ffffffffffffffffffffffffffffffffffffffff8481166024830152604480830185905283518084039091018152606490920183526020820180517bffffffffffffffffffffffffffffffffffffffffffffffffffffffff167fa9059cbb0000000000000000000000000000000000000000000000000000000017905291516000928392908716916117ca9190611f8f565b6000604051808303816000865af19150503d8060008114611807576040519150601f19603f3d011682016040523d82523d6000602084013e61180c565b606091505b50915091508180156118365750805115806118365750808060200190518101906118369190611f3c565b61189c576040517f08c379a000000000000000000000000000000000000000000000000000000000815260206004820152601f60248201527f5472616e7366657248656c7065723a205452414e534645525f4641494c454400604482015260640161068a565b5050505050565b6040805173ffffffffffffffffffffffffffffffffffffffff85811660248301528481166044830152606480830185905283518084039091018152608490920183526020820180517bffffffffffffffffffffffffffffffffffffffffffffffffffffffff167f23b872dd0000000000000000000000000000000000000000000000000000000017905291516000928392908816916119429190611f8f565b6000604051808303816000865af19150503d806000811461197f576040519150601f19603f3d011682016040523d82523d6000602084013e611984565b606091505b50915091508180156119ae5750805115806119ae5750808060200190518101906119ae9190611f3c565b610bf9576040517f08c379a0000000000000000000000000000000000000000000000000000000008152602060048201526024808201527f5472616e7366657248656c7065723a205452414e534645525f46524f4d5f464160448201527f494c454400000000000000000000000000000000000000000000000000000000606482015260840161068a565b600062927c00821015611a7a576004611a5562249f0084611fe2565b901b74280035004300530068008300a300cc010001400190901c61ffff169050919050565b5060a3919050565b600080611a8e836114ef565b60018085015490549192509073ffffffffffffffffffffffffffffffffffffffff86811691161415611bd857600480546040517f9c5afa1600000000000000000000000000000000000000000000000000000000815273ffffffffffffffffffffffffffffffffffffffff8881169382019390935260009290911690639c5afa169060240160206040518083038186803b158015611b2b57600080fd5b505afa158015611b3f573d6000803e3d6000fd5b505050506040513d601f19601f82011682018060405250810190611b639190611f76565b6002860154909150611b87906fffffffffffffffffffffffffffffffff168261205a565b611b919084611fca565b6002860180547fffffffffffffffffffffffffffffffff00000000000000000000000000000000166fffffffffffffffffffffffffffffffff939093169290921790915591505b6002848101547001000000000000000000000000000000009004600681901c6b03ffffffffffffffffffffff16911b60fc161b92508015611c3d5780611c2683670de0b6b3a764000061201d565b611c309190611fe2565b611c3a9084611fca565b92505b611c4683611cd9565b60029490940180546fffffffffffffffffffffffffffffffff167001000000000000000000000000000000006bffffffffffffffffffffffff909616959095027bffffffffffffffffffffffffffffffffffffffffffffffffffffffff16949094177c01000000000000000000000000000000000000000000000000000000004363ffffffff1602179093555092915050565b6000805b6b03ffffffffffffffffffffff831115611d085760049290921c91611d0181612071565b9050611cdd565b60069290921b909117919050565b60008083601f840112611d2857600080fd5b50813567ffffffffffffffff811115611d4057600080fd5b6020830191508360208260051b8501011115611d5b57600080fd5b9250929050565b600060208284031215611d7457600080fd5b8135611d7f81612151565b9392505050565b600060208284031215611d9857600080fd5b8151611d7f81612151565b60008060408385031215611db657600080fd5b8235611dc181612151565b91506020830135611dd181612151565b809150509250929050565b60008060008060008060c08789031215611df557600080fd5b8651611e0081612151565b6020880151909650611e1181612151565b6040880151909550611e2281612151565b6060880151909450611e3381612151565b6080880151909350611e4481612151565b60a0880151909250611e5581612151565b809150509295509295509295565b600080600060608486031215611e7857600080fd5b8335611e8381612151565b92506020840135611e9381612151565b929592945050506040919091013590565b60008060408385031215611eb757600080fd5b8235611ec281612151565b946020939093013593505050565b60008060008060408587031215611ee657600080fd5b843567ffffffffffffffff80821115611efe57600080fd5b611f0a88838901611d16565b90965094506020870135915080821115611f2357600080fd5b50611f3087828801611d16565b95989497509550505050565b600060208284031215611f4e57600080fd5b81518015158114611d7f57600080fd5b600060208284031215611f7057600080fd5b50919050565b600060208284031215611f8857600080fd5b5051919050565b6000825160005b81811015611fb05760208186018101518583015201611f96565b81811115611fbf576000828501525b509190910192915050565b60008219821115611fdd57611fdd6120aa565b500190565b600082612018577f4e487b7100000000000000000000000000000000000000000000000000000000600052601260045260246000fd5b500490565b6000817fffffffffffffffffffffffffffffffffffffffffffffffffffffffffffffffff0483118215151615612055576120556120aa565b500290565b60008282101561206c5761206c6120aa565b500390565b60007fffffffffffffffffffffffffffffffffffffffffffffffffffffffffffffffff8214156120a3576120a36120aa565b5060010190565b7f4e487b7100000000000000000000000000000000000000000000000000000000600052601160045260246000fd5b7f4e487b7100000000000000000000000000000000000000000000000000000000600052603260045260246000fd5b81356bffffffffffffffffffffffff811680821461212557600080fd5b82547fffffffffffffffffffffffffffffffffffffffff00000000000000000000000016179091555050565b73ffffffffffffffffffffffffffffffffffffffff8116811461217357600080fd5b5056fea2646970667358221220f4ebea28f9dbbcf859d9daea0879f102f9ffac36ae1fb8c6ac5c1191a3676d4164736f6c63430008060033",
  "linkReferences": {},
  "deployedLinkReferences": {}
}