{
  "_format": "hh-sol-artifact-1",
  "contractName": "CoFiXPair",
  "sourceName": "contracts/CoFiXPair.sol",
  "abi": [
    {
      "inputs": [],
      "stateMutability": "nonpayable",
      "type": "constructor"
    },
    {
      "anonymous": false,
      "inputs": [
        {
          "indexed": true,
          "internalType": "address",
          "name": "owner",
          "type": "address"
        },
        {
          "indexed": true,
          "internalType": "address",
          "name": "spender",
          "type": "address"
        },
        {
          "indexed": false,
          "internalType": "uint256",
          "name": "value",
          "type": "uint256"
        }
      ],
      "name": "Approval",
      "type": "event"
    },
    {
      "anonymous": false,
      "inputs": [
        {
          "indexed": false,
          "internalType": "address",
          "name": "token",
          "type": "address"
        },
        {
          "indexed": false,
          "internalType": "address",
          "name": "to",
          "type": "address"
        },
        {
          "indexed": false,
          "internalType": "uint256",
          "name": "liquidity",
          "type": "uint256"
        },
        {
          "indexed": false,
          "internalType": "uint256",
          "name": "amountETHOut",
          "type": "uint256"
        },
        {
          "indexed": false,
          "internalType": "uint256",
          "name": "amountTokenOut",
          "type": "uint256"
        }
      ],
      "name": "Burn",
      "type": "event"
    },
    {
      "anonymous": false,
      "inputs": [
        {
          "indexed": false,
          "internalType": "address",
          "name": "token",
          "type": "address"
        },
        {
          "indexed": false,
          "internalType": "address",
          "name": "to",
          "type": "address"
        },
        {
          "indexed": false,
          "internalType": "uint256",
          "name": "amountETH",
          "type": "uint256"
        },
        {
          "indexed": false,
          "internalType": "uint256",
          "name": "amountToken",
          "type": "uint256"
        },
        {
          "indexed": false,
          "internalType": "uint256",
          "name": "liquidity",
          "type": "uint256"
        }
      ],
      "name": "Mint",
      "type": "event"
    },
    {
      "anonymous": false,
      "inputs": [
        {
          "indexed": false,
          "internalType": "uint256",
          "name": "amountIn",
          "type": "uint256"
        },
        {
          "indexed": false,
          "internalType": "address",
          "name": "to",
          "type": "address"
        },
        {
          "indexed": false,
          "internalType": "uint256",
          "name": "amountETHOut",
          "type": "uint256"
        },
        {
          "indexed": false,
          "internalType": "uint256",
          "name": "mined",
          "type": "uint256"
        }
      ],
      "name": "SwapForETH",
      "type": "event"
    },
    {
      "anonymous": false,
      "inputs": [
        {
          "indexed": false,
          "internalType": "uint256",
          "name": "amountIn",
          "type": "uint256"
        },
        {
          "indexed": false,
          "internalType": "address",
          "name": "to",
          "type": "address"
        },
        {
          "indexed": false,
          "internalType": "uint256",
          "name": "amountTokenOut",
          "type": "uint256"
        },
        {
          "indexed": false,
          "internalType": "uint256",
          "name": "mined",
          "type": "uint256"
        }
      ],
      "name": "SwapForToken",
      "type": "event"
    },
    {
      "anonymous": false,
      "inputs": [
        {
          "indexed": true,
          "internalType": "address",
          "name": "from",
          "type": "address"
        },
        {
          "indexed": true,
          "internalType": "address",
          "name": "to",
          "type": "address"
        },
        {
          "indexed": false,
          "internalType": "uint256",
          "name": "value",
          "type": "uint256"
        }
      ],
      "name": "Transfer",
      "type": "event"
    },
    {
      "inputs": [],
      "name": "_governance",
      "outputs": [
        {
          "internalType": "address",
          "name": "",
          "type": "address"
        }
      ],
      "stateMutability": "view",
      "type": "function"
    },
    {
      "inputs": [
        {
          "internalType": "address",
          "name": "",
          "type": "address"
        },
        {
          "internalType": "address",
          "name": "",
          "type": "address"
        }
      ],
      "name": "allowance",
      "outputs": [
        {
          "internalType": "uint256",
          "name": "",
          "type": "uint256"
        }
      ],
      "stateMutability": "view",
      "type": "function"
    },
    {
      "inputs": [
        {
          "internalType": "address",
          "name": "spender",
          "type": "address"
        },
        {
          "internalType": "uint256",
          "name": "value",
          "type": "uint256"
        }
      ],
      "name": "approve",
      "outputs": [
        {
          "internalType": "bool",
          "name": "",
          "type": "bool"
        }
      ],
      "stateMutability": "nonpayable",
      "type": "function"
    },
    {
      "inputs": [
        {
          "internalType": "address",
          "name": "",
          "type": "address"
        }
      ],
      "name": "balanceOf",
      "outputs": [
        {
          "internalType": "uint256",
          "name": "",
          "type": "uint256"
        }
      ],
      "stateMutability": "view",
      "type": "function"
    },
    {
      "inputs": [
        {
          "internalType": "address",
          "name": "token",
          "type": "address"
        },
        {
          "internalType": "address",
          "name": "to",
          "type": "address"
        },
        {
          "internalType": "uint256",
          "name": "liquidity",
          "type": "uint256"
        },
        {
          "internalType": "address",
          "name": "payback",
          "type": "address"
        }
      ],
      "name": "burn",
      "outputs": [
        {
          "internalType": "uint256",
          "name": "amountETHOut",
          "type": "uint256"
        },
        {
          "internalType": "uint256",
          "name": "amountTokenOut",
          "type": "uint256"
        }
      ],
      "stateMutability": "payable",
      "type": "function"
    },
    {
      "inputs": [
        {
          "internalType": "uint256",
          "name": "balance0",
          "type": "uint256"
        },
        {
          "internalType": "uint256",
          "name": "balance1",
          "type": "uint256"
        },
        {
          "internalType": "uint256",
          "name": "ethAmount",
          "type": "uint256"
        },
        {
          "internalType": "uint256",
          "name": "tokenAmount",
          "type": "uint256"
        }
      ],
      "name": "calcNAVPerShare",
      "outputs": [
        {
          "internalType": "uint256",
          "name": "navps",
          "type": "uint256"
        }
      ],
      "stateMutability": "view",
      "type": "function"
    },
    {
      "inputs": [],
      "name": "decimals",
      "outputs": [
        {
          "internalType": "uint8",
          "name": "",
          "type": "uint8"
        }
      ],
      "stateMutability": "view",
      "type": "function"
    },
    {
      "inputs": [
        {
          "internalType": "uint256",
          "name": "newBalance0",
          "type": "uint256"
        },
        {
          "internalType": "uint256",
          "name": "newBalance1",
          "type": "uint256"
        },
        {
          "internalType": "uint256",
          "name": "ethAmount",
          "type": "uint256"
        },
        {
          "internalType": "uint256",
          "name": "tokenAmount",
          "type": "uint256"
        }
      ],
      "name": "estimate",
      "outputs": [
        {
          "internalType": "uint256",
          "name": "mined",
          "type": "uint256"
        }
      ],
      "stateMutability": "view",
      "type": "function"
    },
    {
      "inputs": [],
      "name": "getConfig",
      "outputs": [
        {
          "internalType": "uint16",
          "name": "theta",
          "type": "uint16"
        },
        {
          "internalType": "uint16",
          "name": "impactCostVOL",
          "type": "uint16"
        },
        {
          "internalType": "uint56",
          "name": "nt",
          "type": "uint56"
        }
      ],
      "stateMutability": "view",
      "type": "function"
    },
    {
      "inputs": [],
      "name": "getInitialAssetRatio",
      "outputs": [
        {
          "internalType": "uint256",
          "name": "initToken0Amount",
          "type": "uint256"
        },
        {
          "internalType": "uint256",
          "name": "initToken1Amount",
          "type": "uint256"
        }
      ],
      "stateMutability": "view",
      "type": "function"
    },
    {
      "inputs": [
        {
          "internalType": "uint256",
          "name": "ethAmount",
          "type": "uint256"
        },
        {
          "internalType": "uint256",
          "name": "tokenAmount",
          "type": "uint256"
        }
      ],
      "name": "getNAVPerShare",
      "outputs": [
        {
          "internalType": "uint256",
          "name": "navps",
          "type": "uint256"
        }
      ],
      "stateMutability": "view",
      "type": "function"
    },
    {
      "inputs": [
        {
          "internalType": "address",
          "name": "token",
          "type": "address"
        }
      ],
      "name": "getXToken",
      "outputs": [
        {
          "internalType": "address",
          "name": "",
          "type": "address"
        }
      ],
      "stateMutability": "view",
      "type": "function"
    },
    {
      "inputs": [
        {
          "internalType": "uint256",
          "name": "vol",
          "type": "uint256"
        }
      ],
      "name": "impactCostForBuyInETH",
      "outputs": [
        {
          "internalType": "uint256",
          "name": "impactCost",
          "type": "uint256"
        }
      ],
      "stateMutability": "view",
      "type": "function"
    },
    {
      "inputs": [
        {
          "internalType": "uint256",
          "name": "vol",
          "type": "uint256"
        }
      ],
      "name": "impactCostForSellOutETH",
      "outputs": [
        {
          "internalType": "uint256",
          "name": "impactCost",
          "type": "uint256"
        }
      ],
      "stateMutability": "view",
      "type": "function"
    },
    {
      "inputs": [
        {
          "internalType": "address",
          "name": "governance",
          "type": "address"
        },
        {
          "internalType": "string",
          "name": "name_",
          "type": "string"
        },
        {
          "internalType": "string",
          "name": "symbol_",
          "type": "string"
        },
        {
          "internalType": "address",
          "name": "tokenAddress",
          "type": "address"
        },
        {
          "internalType": "uint48",
          "name": "initToken0Amount",
          "type": "uint48"
        },
        {
          "internalType": "uint48",
          "name": "initToken1Amount",
          "type": "uint48"
        }
      ],
      "name": "init",
      "outputs": [],
      "stateMutability": "nonpayable",
      "type": "function"
    },
    {
      "inputs": [
        {
          "internalType": "address",
          "name": "governance",
          "type": "address"
        }
      ],
      "name": "initialize",
      "outputs": [],
      "stateMutability": "nonpayable",
      "type": "function"
    },
    {
      "inputs": [
        {
          "internalType": "address",
          "name": "tokenAddress",
          "type": "address"
        },
        {
          "internalType": "uint256",
          "name": "value",
          "type": "uint256"
        }
      ],
      "name": "migrate",
      "outputs": [],
      "stateMutability": "nonpayable",
      "type": "function"
    },
    {
      "inputs": [
        {
          "internalType": "address",
          "name": "token",
          "type": "address"
        },
        {
          "internalType": "address",
          "name": "to",
          "type": "address"
        },
        {
          "internalType": "uint256",
          "name": "amountETH",
          "type": "uint256"
        },
        {
          "internalType": "uint256",
          "name": "amountToken",
          "type": "uint256"
        },
        {
          "internalType": "address",
          "name": "payback",
          "type": "address"
        }
      ],
      "name": "mint",
      "outputs": [
        {
          "internalType": "address",
          "name": "xtoken",
          "type": "address"
        },
        {
          "internalType": "uint256",
          "name": "liquidity",
          "type": "uint256"
        }
      ],
      "stateMutability": "payable",
      "type": "function"
    },
    {
      "inputs": [],
      "name": "name",
      "outputs": [
        {
          "internalType": "string",
          "name": "",
          "type": "string"
        }
      ],
      "stateMutability": "view",
      "type": "function"
    },
    {
      "inputs": [
        {
          "internalType": "uint16",
          "name": "theta",
          "type": "uint16"
        },
        {
          "internalType": "uint16",
          "name": "impactCostVOL",
          "type": "uint16"
        },
        {
          "internalType": "uint56",
          "name": "nt",
          "type": "uint56"
        }
      ],
      "name": "setConfig",
      "outputs": [],
      "stateMutability": "nonpayable",
      "type": "function"
    },
    {
      "inputs": [
        {
          "internalType": "address",
          "name": "src",
          "type": "address"
        },
        {
          "internalType": "address",
          "name": "dest",
          "type": "address"
        },
        {
          "internalType": "uint256",
          "name": "amountIn",
          "type": "uint256"
        },
        {
          "internalType": "address",
          "name": "to",
          "type": "address"
        },
        {
          "internalType": "address",
          "name": "payback",
          "type": "address"
        }
      ],
      "name": "swap",
      "outputs": [
        {
          "internalType": "uint256",
          "name": "amountOut",
          "type": "uint256"
        },
        {
          "internalType": "uint256",
          "name": "mined",
          "type": "uint256"
        }
      ],
      "stateMutability": "payable",
      "type": "function"
    },
    {
      "inputs": [],
      "name": "symbol",
      "outputs": [
        {
          "internalType": "string",
          "name": "",
          "type": "string"
        }
      ],
      "stateMutability": "view",
      "type": "function"
    },
    {
      "inputs": [],
      "name": "totalSupply",
      "outputs": [
        {
          "internalType": "uint256",
          "name": "",
          "type": "uint256"
        }
      ],
      "stateMutability": "view",
      "type": "function"
    },
    {
      "inputs": [
        {
          "internalType": "address",
          "name": "to",
          "type": "address"
        },
        {
          "internalType": "uint256",
          "name": "value",
          "type": "uint256"
        }
      ],
      "name": "transfer",
      "outputs": [
        {
          "internalType": "bool",
          "name": "",
          "type": "bool"
        }
      ],
      "stateMutability": "nonpayable",
      "type": "function"
    },
    {
      "inputs": [
        {
          "internalType": "address",
          "name": "from",
          "type": "address"
        },
        {
          "internalType": "address",
          "name": "to",
          "type": "address"
        },
        {
          "internalType": "uint256",
          "name": "value",
          "type": "uint256"
        }
      ],
      "name": "transferFrom",
      "outputs": [
        {
          "internalType": "bool",
          "name": "",
          "type": "bool"
        }
      ],
      "stateMutability": "nonpayable",
      "type": "function"
    },
    {
      "inputs": [
        {
          "internalType": "address",
          "name": "newGovernance",
          "type": "address"
        }
      ],
      "name": "update",
      "outputs": [],
      "stateMutability": "nonpayable",
      "type": "function"
    }
  ],
  "bytecode": "0x608060405234801561001057600080fd5b5061392e806100206000396000f3fe6080604052600436106101a15760003560e01c80638c1893c1116100e1578063b09b31861161008a578063d342d97711610064578063d342d97714610395578063dd62ed3e14610566578063fa28d6921461059e578063fa291e53146105dd57600080fd5b8063b09b3186146104a0578063c3f909d4146104c0578063c4d66de81461054657600080fd5b8063a1da4d24116100bb578063a1da4d241461040a578063a9059cbb14610460578063ad68ebf71461048057600080fd5b80638c1893c1146103b557806395d89b41146103d557806399f45e48146103ea57600080fd5b806324334be81161014e5780634cb2b6b1116101285780634cb2b6b11461032857806370a0823114610348578063738240fb14610375578063829630121461039557600080fd5b806324334be8146102b9578063313ce567146102d957806344c133e21461030057600080fd5b80631c1b87721161017f5780631c1b8772146102255780631c2f3e3d1461024757806323b872dd1461029957600080fd5b806306fdde03146101a6578063095ea7b3146101d157806318160ddd14610201575b600080fd5b3480156101b257600080fd5b506101bb6105f0565b6040516101c89190613728565b60405180910390f35b3480156101dd57600080fd5b506101f16101ec366004613565565b61067e565b60405190151581526020016101c8565b34801561020d57600080fd5b5061021760035481565b6040519081526020016101c8565b34801561023157600080fd5b50610245610240366004613269565b610695565b005b34801561025357600080fd5b506002546102749073ffffffffffffffffffffffffffffffffffffffff1681565b60405173ffffffffffffffffffffffffffffffffffffffff90911681526020016101c8565b3480156102a557600080fd5b506101f16102b4366004613363565b610784565b3480156102c557600080fd5b506102176102d4366004613638565b61085e565b3480156102e557600080fd5b506102ee601281565b60405160ff90911681526020016101c8565b61031361030e3660046133f7565b610996565b604080519283526020830191909152016101c8565b34801561033457600080fd5b50610274610343366004613269565b610c61565b34801561035457600080fd5b50610217610363366004613269565b60046020526000908152604090205481565b34801561038157600080fd5b506102456103903660046135b3565b610c96565b3480156103a157600080fd5b506102176103b0366004613606565b610e82565b3480156103c157600080fd5b506102456103d03660046134b0565b610eb1565b3480156103e157600080fd5b506101bb610f82565b3480156103f657600080fd5b5061021761040536600461365a565b610f8f565b34801561041657600080fd5b5060065465ffffffffffff7401000000000000000000000000000000000000000082048116917a010000000000000000000000000000000000000000000000000000900416610313565b34801561046c57600080fd5b506101f161047b366004613565565b61102c565b34801561048c57600080fd5b5061024561049b366004613565565b611039565b3480156104ac57600080fd5b506102176104bb36600461365a565b61129e565b3480156104cc57600080fd5b50600a546040805174010000000000000000000000000000000000000000830461ffff90811682527601000000000000000000000000000000000000000000008404166020820152780100000000000000000000000000000000000000000000000090920466ffffffffffffff16908201526060016101c8565b34801561055257600080fd5b50610245610561366004613269565b6113ab565b34801561057257600080fd5b506102176105813660046132a3565b600560209081526000928352604080842090915290825290205481565b6105b16105ac36600461345f565b611472565b6040805173ffffffffffffffffffffffffffffffffffffffff90931683526020830191909152016101c8565b6103136105eb3660046133a4565b611a47565b600780546105fd90613850565b80601f016020809104026020016040519081016040528092919081815260200182805461062990613850565b80156106765780601f1061064b57610100808354040283529160200191610676565b820191906000526020600020905b81548152906001019060200180831161065957829003601f168201915b505050505081565b600061068b338484611fe5565b5060015b92915050565b61069e81612054565b8073ffffffffffffffffffffffffffffffffffffffff1663746b56f96040518163ffffffff1660e01b815260040160c06040518083038186803b1580156106e457600080fd5b505afa1580156106f8573d6000803e3d6000fd5b505050506040513d601f19601f8201168201806040525081019061071c91906132dc565b50600b805473ffffffffffffffffffffffffffffffffffffffff9283167fffffffffffffffffffffffff000000000000000000000000000000000000000091821617909155600a80549383169382169390931790925560098054919093169116179055505050565b73ffffffffffffffffffffffffffffffffffffffff831660009081526005602090815260408083203384529091528120547fffffffffffffffffffffffffffffffffffffffffffffffffffffffffffffffff146108495773ffffffffffffffffffffffffffffffffffffffff84166000908152600560209081526040808320338452909152902054610817908390613809565b73ffffffffffffffffffffffffffffffffffffffff851660009081526005602090815260408083203384529091529020555b6108548484846122a7565b5060019392505050565b6003546000908015610985576003546006546040517f70a0823100000000000000000000000000000000000000000000000000000000815230600482015261096191479173ffffffffffffffffffffffffffffffffffffffff909116906370a082319060240160206040518083038186803b1580156108dc57600080fd5b505afa1580156108f0573d6000803e3d6000fd5b505050506040513d601f19601f82011682018060405250810190610914919061361f565b6006548890889065ffffffffffff7401000000000000000000000000000000000000000082048116917a010000000000000000000000000000000000000000000000000000900416612376565b61097390670de0b6b3a76400006137cc565b61097d9190613791565b91505061068f565b50670de0b6b3a76400009392505050565b600a54600090819073ffffffffffffffffffffffffffffffffffffffff163314610a21576040517f08c379a000000000000000000000000000000000000000000000000000000000815260206004820152601f60248201527f436f466958506169723a204f6e6c7920666f7220436f466958526f757465720060448201526064015b60405180910390fd5b600a547f0100000000000000000000000000000000000000000000000000000000000000900460ff1615610ab1576040517f08c379a000000000000000000000000000000000000000000000000000000000815260206004820152601160248201527f436f466958506169723a204c4f434b45440000000000000000000000000000006044820152606401610a18565b600a80547effffffffffffffffffffffffffffffffffffffffffffffffffffffffffffff167f010000000000000000000000000000000000000000000000000000000000000017905560065473ffffffffffffffffffffffffffffffffffffffff908116908816158015610b5057508073ffffffffffffffffffffffffffffffffffffffff168773ffffffffffffffffffffffffffffffffffffffff16145b15610b6b57610b61818787876123d4565b9093509150610c2d565b8073ffffffffffffffffffffffffffffffffffffffff168873ffffffffffffffffffffffffffffffffffffffff16148015610bba575073ffffffffffffffffffffffffffffffffffffffff8716155b15610bcb57610b61818787876126e0565b6040517f08c379a000000000000000000000000000000000000000000000000000000000815260206004820152601560248201527f436f466958506169723a2070616972206572726f7200000000000000000000006044820152606401610a18565b50600a80547effffffffffffffffffffffffffffffffffffffffffffffffffffffffffffff16905590969095509350505050565b60065460009073ffffffffffffffffffffffffffffffffffffffff83811691161415610c8e575030919050565b506000919050565b6002546040517f91e1472b0000000000000000000000000000000000000000000000000000000081523360048201526000602482015273ffffffffffffffffffffffffffffffffffffffff909116906391e1472b9060440160206040518083038186803b158015610d0657600080fd5b505afa158015610d1a573d6000803e3d6000fd5b505050506040513d601f19601f82011682018060405250810190610d3e9190613591565b610da4576040517f08c379a000000000000000000000000000000000000000000000000000000000815260206004820152600a60248201527f436f4669583a21676f76000000000000000000000000000000000000000000006044820152606401610a18565b600a80547fffffffffffffffff00000000ffffffffffffffffffffffffffffffffffffffff167401000000000000000000000000000000000000000061ffff958616027fffffffffffffffff0000ffffffffffffffffffffffffffffffffffffffffffff16177601000000000000000000000000000000000000000000009390941692909202929092177fff00000000000000ffffffffffffffffffffffffffffffffffffffffffffffff16780100000000000000000000000000000000000000000000000066ffffffffffffff9390931692909202919091179055565b600a5460009061068f908390760100000000000000000000000000000000000000000000900461ffff166129bf565b610eba886113ab565b610ec66007888861313c565b50610ed36008868661313c565b506006805473ffffffffffffffffffffffffffffffffffffffff949094167fffffffffffff0000000000000000000000000000000000000000000000000000909416939093177401000000000000000000000000000000000000000065ffffffffffff938416021779ffffffffffffffffffffffffffffffffffffffffffffffffffff167a01000000000000000000000000000000000000000000000000000091909216021790555050505050565b600880546105fd90613850565b600354600090801561101757600354600654610ff390889088908890889065ffffffffffff7401000000000000000000000000000000000000000082048116917a010000000000000000000000000000000000000000000000000000900416612376565b61100590670de0b6b3a76400006137cc565b61100f9190613791565b915050611024565b670de0b6b3a76400009150505b949350505050565b600061068b3384846122a7565b6002546040517f91e1472b0000000000000000000000000000000000000000000000000000000081523360048201526000602482015273ffffffffffffffffffffffffffffffffffffffff909116906391e1472b9060440160206040518083038186803b1580156110a957600080fd5b505afa1580156110bd573d6000803e3d6000fd5b505050506040513d601f19601f820116820180604052508101906110e19190613591565b611147576040517f08c379a000000000000000000000000000000000000000000000000000000000815260206004820152600a60248201527f436f4669583a21676f76000000000000000000000000000000000000000000006044820152606401610a18565b600254604080517f96776492000000000000000000000000000000000000000000000000000000008152905160009273ffffffffffffffffffffffffffffffffffffffff16916396776492916004808301926020929190829003018186803b1580156111b257600080fd5b505afa1580156111c6573d6000803e3d6000fd5b505050506040513d601f19601f820116820180604052508101906111ea9190613286565b905073ffffffffffffffffffffffffffffffffffffffff831661128e576040517fdaa78c0f0000000000000000000000000000000000000000000000000000000081526000600482015273ffffffffffffffffffffffffffffffffffffffff82169063daa78c0f9084906024016000604051808303818588803b15801561127057600080fd5b505af1158015611284573d6000803e3d6000fd5b5050505050505050565b611299838284612a04565b505050565b6000806112ad86868686612b74565b600c549091506e01000000000000000000000000000090046dffffffffffffffffffffffffffff16818111156113a157600c54600090633b9aca0090611319907c0100000000000000000000000000000000000000000000000000000000900463ffffffff1643613809565b600a5461134b907801000000000000000000000000000000000000000000000000900466ffffffffffffff16856137cc565b61135591906137cc565b61135f9190613791565b600c5461137c91906dffffffffffffffffffffffffffff16613779565b9050816113898482613809565b61139390836137cc565b61139d9190613791565b9350505b5050949350505050565b60025473ffffffffffffffffffffffffffffffffffffffff161561142b576040517f08c379a000000000000000000000000000000000000000000000000000000000815260206004820152601160248201527f436f4669583a21696e697469616c697a650000000000000000000000000000006044820152606401610a18565b600280547fffffffffffffffffffffffff00000000000000000000000000000000000000001673ffffffffffffffffffffffffffffffffffffffff92909216919091179055565b600a54600090819073ffffffffffffffffffffffffffffffffffffffff1633146114f8576040517f08c379a000000000000000000000000000000000000000000000000000000000815260206004820152601f60248201527f436f466958506169723a204f6e6c7920666f7220436f466958526f75746572006044820152606401610a18565b600a547f0100000000000000000000000000000000000000000000000000000000000000900460ff1615611588576040517f08c379a000000000000000000000000000000000000000000000000000000000815260206004820152601160248201527f436f466958506169723a204c4f434b45440000000000000000000000000000006044820152606401610a18565b600a80547effffffffffffffffffffffffffffffffffffffffffffffffffffffffffffff167f010000000000000000000000000000000000000000000000000000000000000017905560065473ffffffffffffffffffffffffffffffffffffffff888116911614611655576040517f08c379a000000000000000000000000000000000000000000000000000000000815260206004820181905260248201527f436f466958506169723a20696e76616c696420746f6b656e20616464726573736044820152606401610a18565b6006546116829074010000000000000000000000000000000000000000900465ffffffffffff16856137cc565b6006546116b5907a010000000000000000000000000000000000000000000000000000900465ffffffffffff16876137cc565b1461171c576040517f08c379a000000000000000000000000000000000000000000000000000000000815260206004820152601e60248201527f436f466958506169723a20696e76616c696420617373657420726174696f00006044820152606401610a18565b600354801561193457600b54600090819073ffffffffffffffffffffffffffffffffffffffff16633c72db4c6117528a34613809565b6040517fffffffff0000000000000000000000000000000000000000000000000000000060e084901b16815273ffffffffffffffffffffffffffffffffffffffff808f1660048301528a16602482015260440160c0604051808303818588803b1580156117be57600080fd5b505af11580156117d2573d6000803e3d6000fd5b50505050506040513d601f19601f820116820180604052508101906117f791906136c2565b50506040517f70a0823100000000000000000000000000000000000000000000000000000000815230600482015292955090935047925060009173ffffffffffffffffffffffffffffffffffffffff8e1691506370a082319060240160206040518083038186803b15801561186b57600080fd5b505afa15801561187f573d6000803e3d6000fd5b505050506040513d601f19601f820116820180604052508101906118a3919061361f565b90506119096118b28b84613809565b6118bc8b84613809565b6006548790879065ffffffffffff7401000000000000000000000000000000000000000082048116917a010000000000000000000000000000000000000000000000000000900416612376565b611913868c6137cc565b61191d9190613791565b955061192b82828686612c3e565b505050506119a0565b73ffffffffffffffffffffffffffffffffffffffff84166108fc6119588834613809565b6040518115909202916000818181858888f19350505050158015611980573d6000803e3d6000fd5b5061198f633b9aca0087613809565b91506119a06000633b9aca00612db5565b6119aa8783612db5565b6040805173ffffffffffffffffffffffffffffffffffffffff808b1682528916602082015290810187905260608101869052608081018390523093507f458f5fa412d0f69b08dd84872b0215675cc67bc1d5b6fd93300a1c3878b861969060a00160405180910390a150600a80547effffffffffffffffffffffffffffffffffffffffffffffffffffffffffffff16905590969095509350505050565b600a54600090819073ffffffffffffffffffffffffffffffffffffffff163314611acd576040517f08c379a000000000000000000000000000000000000000000000000000000000815260206004820152601f60248201527f436f466958506169723a204f6e6c7920666f7220436f466958526f75746572006044820152606401610a18565b600a547f0100000000000000000000000000000000000000000000000000000000000000900460ff1615611b5d576040517f08c379a000000000000000000000000000000000000000000000000000000000815260206004820152601160248201527f436f466958506169723a204c4f434b45440000000000000000000000000000006044820152606401610a18565b600a80547effffffffffffffffffffffffffffffffffffffffffffffffffffffffffffff167f010000000000000000000000000000000000000000000000000000000000000017905560065473ffffffffffffffffffffffffffffffffffffffff878116911614611c2a576040517f08c379a000000000000000000000000000000000000000000000000000000000815260206004820181905260248201527f436f466958506169723a20696e76616c696420746f6b656e20616464726573736044820152606401610a18565b600b546040517f3c72db4c00000000000000000000000000000000000000000000000000000000815273ffffffffffffffffffffffffffffffffffffffff888116600483015285811660248301526000928392911690633c72db4c90349060440160c0604051808303818588803b158015611ca457600080fd5b505af1158015611cb8573d6000803e3d6000fd5b50505050506040513d601f19601f82011682018060405250810190611cdd91906136c2565b50506040517f70a0823100000000000000000000000000000000000000000000000000000000815230600482015292955090935047925060009173ffffffffffffffffffffffffffffffffffffffff8c1691506370a082319060240160206040518083038186803b158015611d5157600080fd5b505afa158015611d65573d6000803e3d6000fd5b505050506040513d601f19601f82011682018060405250810190611d89919061361f565b600354600654919250670de0b6b3a76400009165ffffffffffff7401000000000000000000000000000000000000000082048116917a0100000000000000000000000000000000000000000000000000009004168215611e115782611df287878b8b8787612376565b611e0490670de0b6b3a76400006137cc565b611e0e9190613791565b93505b670de0b6b3a7640000611e248d866137cc565b611e2e9190613791565b995081611e3b828c6137cc565b611e459190613791565b9850611e51308d612e61565b858a1115611e8d578787611e65888d613809565b611e6f91906137cc565b611e799190613791565b611e83908a613779565b9850859950611ec5565b84891115611ec5578688611ea1878c613809565b611eab91906137cc565b611eb59190613791565b611ebf908b613779565b99508498505b60405173ffffffffffffffffffffffffffffffffffffffff8e16908b156108fc02908c906000818181858888f19350505050158015611f08573d6000803e3d6000fd5b50611f148e8e8b612a04565b7f4cf25bc1d991c17529c25213d3cc0cda295eeaad5f13f361969b12ea48015f908e8e8e8d8d604051611f8495949392919073ffffffffffffffffffffffffffffffffffffffff958616815293909416602084015260408301919091526060820152608081019190915260a00190565b60405180910390a1611faa611f998b88613809565b611fa38b88613809565b8a8a612c3e565b5050600a80547effffffffffffffffffffffffffffffffffffffffffffffffffffffffffffff16905550959a94995093975050505050505050565b73ffffffffffffffffffffffffffffffffffffffff83811660008181526005602090815260408083209487168084529482529182902085905590518481527f8c5be1e5ebec7d5bd14f71427d1e84f3dd0314c0f7b2291e5b200ac8c7c3b92591015b60405180910390a3505050565b60025473ffffffffffffffffffffffffffffffffffffffff163381148061211a57506040517f91e1472b0000000000000000000000000000000000000000000000000000000081523360048201526000602482015273ffffffffffffffffffffffffffffffffffffffff8216906391e1472b9060440160206040518083038186803b1580156120e257600080fd5b505afa1580156120f6573d6000803e3d6000fd5b505050506040513d601f19601f8201168201806040525081019061211a9190613591565b612180576040517f08c379a000000000000000000000000000000000000000000000000000000000815260206004820152600a60248201527f436f4669583a21676f76000000000000000000000000000000000000000000006044820152606401610a18565b600280547fffffffffffffffffffffffff00000000000000000000000000000000000000001673ffffffffffffffffffffffffffffffffffffffff8416908117909155604080517f746b56f9000000000000000000000000000000000000000000000000000000008152905163746b56f99160048082019260c092909190829003018186803b15801561221257600080fd5b505afa158015612226573d6000803e3d6000fd5b505050506040513d601f19601f8201168201806040525081019061224a91906132dc565b50506001805473ffffffffffffffffffffffffffffffffffffffff9485167fffffffffffffffffffffffff000000000000000000000000000000000000000091821617909155600080549590941694169390931790915550505050565b73ffffffffffffffffffffffffffffffffffffffff83166000908152600460205260409020546122d8908290613809565b73ffffffffffffffffffffffffffffffffffffffff8085166000908152600460205260408082209390935590841681522054612315908290613779565b73ffffffffffffffffffffffffffffffffffffffff80841660008181526004602052604090819020939093559151908516907fddf252ad1be2c89b69c2b068fc378daa952ba7f163c4a11628f55a4df523b3ef906120479085815260200190565b600061238285836137cc565b61238c85856137cc565b6123969190613779565b836123a187896137cc565b6123ab878b6137cc565b6123b59190613779565b6123bf91906137cc565b6123c99190613791565b979650505050505050565b600b54600090819081908190819073ffffffffffffffffffffffffffffffffffffffff16631a78f96d6124078a34613809565b6040517fffffffff0000000000000000000000000000000000000000000000000000000060e084901b16815273ffffffffffffffffffffffffffffffffffffffff808e1660048301528a1660248201526044016080604051808303818588803b15801561247357600080fd5b505af1158015612487573d6000803e3d6000fd5b50505050506040513d601f19601f820116820180604052508101906124ac919061368c565b50600a549295509093509150600090612710906124e59074010000000000000000000000000000000000000000900461ffff168b6137cc565b6124ef9190613791565b600a5490915061251e908a90760100000000000000000000000000000000000000000000900461ffff166129bf565b61253085670de0b6b3a7640000613779565b61253a9190613779565b8383612546848d613809565b61255091906137cc565b61256290670de0b6b3a76400006137cc565b61256c9190613791565b6125769190613791565b955061258181612f14565b6040517f70a082310000000000000000000000000000000000000000000000000000000081523060048201526126689061263b904790899073ffffffffffffffffffffffffffffffffffffffff8f16906370a082319060240160206040518083038186803b1580156125f257600080fd5b505afa158015612606573d6000803e3d6000fd5b505050506040513d601f19601f8201168201806040525081019061262a919061361f565b6126349190613809565b8686612b74565b600a547801000000000000000000000000000000000000000000000000900466ffffffffffffff16612fc6565b94506126758a8988612a04565b604080518a815273ffffffffffffffffffffffffffffffffffffffff8a166020820152908101879052606081018690527f2cdbb63e9e03acb3130812eccbb8c16c6936b4d68539f62effff75e9603abb47906080015b60405180910390a15050505094509492505050565b600b546040517f1a78f96d00000000000000000000000000000000000000000000000000000000815273ffffffffffffffffffffffffffffffffffffffff868116600483015283811660248301526000928392839283928392911690631a78f96d9034906044016080604051808303818588803b15801561276057600080fd5b505af1158015612774573d6000803e3d6000fd5b50505050506040513d601f19601f82011682018060405250810190612799919061368c565b5091945092509050806127ac838a6137cc565b6127b69190613791565b600a549095506127e5908690760100000000000000000000000000000000000000000000900461ffff166129bf565b6127f784670de0b6b3a7640000613779565b6128019190613779565b61281386670de0b6b3a76400006137cc565b61281d9190613791565b600a54909550600090612710906128509074010000000000000000000000000000000000000000900461ffff16886137cc565b61285a9190613791565b90506128668187613809565b955061287181612f14565b61291e61263b6128818847613809565b6040517f70a0823100000000000000000000000000000000000000000000000000000000815230600482015273ffffffffffffffffffffffffffffffffffffffff8e16906370a082319060240160206040518083038186803b1580156128e657600080fd5b505afa1580156128fa573d6000803e3d6000fd5b505050506040513d601f19601f82011682018060405250810190612634919061361f565b60405190955073ffffffffffffffffffffffffffffffffffffffff89169087156108fc029088906000818181858888f19350505050158015612964573d6000803e3d6000fd5b50604080518a815273ffffffffffffffffffffffffffffffffffffffff8a166020820152908101879052606081018690527f33ab238af3f67b50929956cc8c13e6d2158053e3a56809bd9722eb910b733643906080016126cb565b60006129d367016345785d8a0000836137cc565b831061068f57670de0b6b3a76400006129f366038d7ea4c68000856137cc565b6129fd9190613791565b9392505050565b6040805173ffffffffffffffffffffffffffffffffffffffff8481166024830152604480830185905283518084039091018152606490920183526020820180517bffffffffffffffffffffffffffffffffffffffffffffffffffffffff167fa9059cbb000000000000000000000000000000000000000000000000000000001790529151600092839290871691612a9b919061370c565b6000604051808303816000865af19150503d8060008114612ad8576040519150601f19603f3d011682016040523d82523d6000602084013e612add565b606091505b5091509150818015612b07575080511580612b07575080806020019051810190612b079190613591565b612b6d576040517f08c379a000000000000000000000000000000000000000000000000000000000815260206004820152601f60248201527f5472616e7366657248656c7065723a205452414e534645525f4641494c4544006044820152606401610a18565b5050505050565b60065460009065ffffffffffff7401000000000000000000000000000000000000000082048116917a01000000000000000000000000000000000000000000000000000090041682612bc682896137cc565b90506000612bd484896137cc565b9050600081831115612bf157612bea8284613809565b9050612bfe565b612bfb8383613809565b90505b612c0885886137cc565b612c12858a6137cc565b612c1c9190613779565b612c2689836137cc565b612c309190613791565b9a9950505050505050505050565b6000612c4c85858585612b74565b600c549091506e01000000000000000000000000000081046dffffffffffffffffffffffffffff1690600090633b9aca0090612cae907c0100000000000000000000000000000000000000000000000000000000900463ffffffff1643613809565b600a54612ce0907801000000000000000000000000000000000000000000000000900466ffffffffffffff16856137cc565b612cea91906137cc565b612cf49190613791565b600c54612d1191906dffffffffffffffffffffffffffff16613779565b600c80546dffffffffffffffffffffffffffff9283167fffffffff00000000000000000000000000000000000000000000000000000000909116176e0100000000000000000000000000009590921694909402177bffffffffffffffffffffffffffffffffffffffffffffffffffffffff167c01000000000000000000000000000000000000000000000000000000004363ffffffff160217909255505050505050565b80600354612dc39190613779565b60035573ffffffffffffffffffffffffffffffffffffffff8216600090815260046020526040902054612df7908290613779565b73ffffffffffffffffffffffffffffffffffffffff83166000818152600460205260408082209390935591519091907fddf252ad1be2c89b69c2b068fc378daa952ba7f163c4a11628f55a4df523b3ef90612e559085815260200190565b60405180910390a35050565b73ffffffffffffffffffffffffffffffffffffffff8216600090815260046020526040902054612e92908290613809565b73ffffffffffffffffffffffffffffffffffffffff8316600090815260046020526040902055600354612ec6908290613809565b60035560405181815260009073ffffffffffffffffffffffffffffffffffffffff8416907fddf252ad1be2c89b69c2b068fc378daa952ba7f163c4a11628f55a4df523b3ef90602001612e55565b600081600d54612f249190613779565b9050670de0b6b3a76400008110612fc0576000600d556009546040517fdaa78c0f00000000000000000000000000000000000000000000000000000000815230600482015273ffffffffffffffffffffffffffffffffffffffff9091169063daa78c0f9083906024016000604051808303818588803b158015612fa657600080fd5b505af1158015612fba573d6000803e3d6000fd5b50505050505b600d5550565b600c546000906e01000000000000000000000000000081046dffffffffffffffffffffffffffff16908290633b9aca0090613027907c0100000000000000000000000000000000000000000000000000000000900463ffffffff1643613809565b61303186856137cc565b61303b91906137cc565b6130459190613791565b600c5461306291906dffffffffffffffffffffffffffff16613779565b90508482111561309a57816130778682613809565b61308190836137cc565b61308b9190613791565b92506130978382613809565b90505b600c80546dffffffffffffffffffffffffffff9283167fffffffff00000000000000000000000000000000000000000000000000000000909116176e0100000000000000000000000000009690921695909502177bffffffffffffffffffffffffffffffffffffffffffffffffffffffff167c01000000000000000000000000000000000000000000000000000000004363ffffffff16021790935592915050565b82805461314890613850565b90600052602060002090601f01602090048101928261316a57600085556131ce565b82601f106131a1578280017fffffffffffffffffffffffffffffffffffffffffffffffffffffffffffffff008235161785556131ce565b828001600101855582156131ce579182015b828111156131ce5782358255916020019190600101906131b3565b506131da9291506131de565b5090565b5b808211156131da57600081556001016131df565b60008083601f84011261320557600080fd5b50813567ffffffffffffffff81111561321d57600080fd5b60208301915083602082850101111561323557600080fd5b9250929050565b803561ffff8116811461324e57600080fd5b919050565b803565ffffffffffff8116811461324e57600080fd5b60006020828403121561327b57600080fd5b81356129fd816138d3565b60006020828403121561329857600080fd5b81516129fd816138d3565b600080604083850312156132b657600080fd5b82356132c1816138d3565b915060208301356132d1816138d3565b809150509250929050565b60008060008060008060c087890312156132f557600080fd5b8651613300816138d3565b6020880151909650613311816138d3565b6040880151909550613322816138d3565b6060880151909450613333816138d3565b6080880151909350613344816138d3565b60a0880151909250613355816138d3565b809150509295509295509295565b60008060006060848603121561337857600080fd5b8335613383816138d3565b92506020840135613393816138d3565b929592945050506040919091013590565b600080600080608085870312156133ba57600080fd5b84356133c5816138d3565b935060208501356133d5816138d3565b92506040850135915060608501356133ec816138d3565b939692955090935050565b600080600080600060a0868803121561340f57600080fd5b853561341a816138d3565b9450602086013561342a816138d3565b9350604086013592506060860135613441816138d3565b91506080860135613451816138d3565b809150509295509295909350565b600080600080600060a0868803121561347757600080fd5b8535613482816138d3565b94506020860135613492816138d3565b935060408601359250606086013591506080860135613451816138d3565b60008060008060008060008060c0898b0312156134cc57600080fd5b88356134d7816138d3565b9750602089013567ffffffffffffffff808211156134f457600080fd5b6135008c838d016131f3565b909950975060408b013591508082111561351957600080fd5b506135268b828c016131f3565b909650945050606089013561353a816138d3565b925061354860808a01613253565b915061355660a08a01613253565b90509295985092959890939650565b6000806040838503121561357857600080fd5b8235613583816138d3565b946020939093013593505050565b6000602082840312156135a357600080fd5b815180151581146129fd57600080fd5b6000806000606084860312156135c857600080fd5b6135d18461323c565b92506135df6020850161323c565b9150604084013566ffffffffffffff811681146135fb57600080fd5b809150509250925092565b60006020828403121561361857600080fd5b5035919050565b60006020828403121561363157600080fd5b5051919050565b6000806040838503121561364b57600080fd5b50508035926020909101359150565b6000806000806080858703121561367057600080fd5b5050823594602084013594506040840135936060013592509050565b600080600080608085870312156136a257600080fd5b505082516020840151604085015160609095015191969095509092509050565b60008060008060008060c087890312156136db57600080fd5b865195506020870151945060408701519350606087015192506080870151915060a087015190509295509295509295565b6000825161371e818460208701613820565b9190910192915050565b6020815260008251806020840152613747816040850160208701613820565b601f017fffffffffffffffffffffffffffffffffffffffffffffffffffffffffffffffe0169190910160400192915050565b6000821982111561378c5761378c6138a4565b500190565b6000826137c7577f4e487b7100000000000000000000000000000000000000000000000000000000600052601260045260246000fd5b500490565b6000817fffffffffffffffffffffffffffffffffffffffffffffffffffffffffffffffff0483118215151615613804576138046138a4565b500290565b60008282101561381b5761381b6138a4565b500390565b60005b8381101561383b578181015183820152602001613823565b8381111561384a576000848401525b50505050565b600181811c9082168061386457607f821691505b6020821081141561389e577f4e487b7100000000000000000000000000000000000000000000000000000000600052602260045260246000fd5b50919050565b7f4e487b7100000000000000000000000000000000000000000000000000000000600052601160045260246000fd5b73ffffffffffffffffffffffffffffffffffffffff811681146138f557600080fd5b5056fea26469706673582212205c9f482b85ed44f8d0cce939ddca0ecd54224aaad64f3d542bd12300df387aed64736f6c63430008060033",
  "linkReferences": {},
  "deployedLinkReferences": {}
}