{
  "_format": "hh-sol-artifact-1",
  "contractName": "CoFiXRouter",
  "sourceName": "contracts/CoFiXRouter.sol",
  "abi": [
    {
      "inputs": [],
      "stateMutability": "nonpayable",
      "type": "constructor"
    },
    {
      "inputs": [],
      "name": "_governance",
      "outputs": [
        {
          "internalType": "address",
          "name": "",
          "type": "address"
        }
      ],
      "stateMutability": "view",
      "type": "function"
    },
    {
      "inputs": [
        {
          "internalType": "address",
          "name": "pool",
          "type": "address"
        },
        {
          "internalType": "address",
          "name": "token",
          "type": "address"
        },
        {
          "internalType": "uint256",
          "name": "amountETH",
          "type": "uint256"
        },
        {
          "internalType": "uint256",
          "name": "amountToken",
          "type": "uint256"
        },
        {
          "internalType": "uint256",
          "name": "liquidityMin",
          "type": "uint256"
        },
        {
          "internalType": "address",
          "name": "to",
          "type": "address"
        },
        {
          "internalType": "uint256",
          "name": "deadline",
          "type": "uint256"
        }
      ],
      "name": "addLiquidity",
      "outputs": [
        {
          "internalType": "address",
          "name": "xtoken",
          "type": "address"
        },
        {
          "internalType": "uint256",
          "name": "liquidity",
          "type": "uint256"
        }
      ],
      "stateMutability": "payable",
      "type": "function"
    },
    {
      "inputs": [
        {
          "internalType": "address",
          "name": "pool",
          "type": "address"
        },
        {
          "internalType": "address",
          "name": "token",
          "type": "address"
        },
        {
          "internalType": "uint256",
          "name": "amountETH",
          "type": "uint256"
        },
        {
          "internalType": "uint256",
          "name": "amountToken",
          "type": "uint256"
        },
        {
          "internalType": "uint256",
          "name": "liquidityMin",
          "type": "uint256"
        },
        {
          "internalType": "address",
          "name": "to",
          "type": "address"
        },
        {
          "internalType": "uint256",
          "name": "deadline",
          "type": "uint256"
        }
      ],
      "name": "addLiquidityAndStake",
      "outputs": [
        {
          "internalType": "address",
          "name": "xtoken",
          "type": "address"
        },
        {
          "internalType": "uint256",
          "name": "liquidity",
          "type": "uint256"
        }
      ],
      "stateMutability": "payable",
      "type": "function"
    },
    {
      "inputs": [
        {
          "internalType": "address",
          "name": "src",
          "type": "address"
        },
        {
          "internalType": "address",
          "name": "dest",
          "type": "address"
        }
      ],
      "name": "getRouterPath",
      "outputs": [
        {
          "internalType": "address[]",
          "name": "path",
          "type": "address[]"
        }
      ],
      "stateMutability": "view",
      "type": "function"
    },
    {
      "inputs": [
        {
          "internalType": "address",
          "name": "pair",
          "type": "address"
        }
      ],
      "name": "getTradeReward",
      "outputs": [
        {
          "internalType": "uint256",
          "name": "",
          "type": "uint256"
        }
      ],
      "stateMutability": "view",
      "type": "function"
    },
    {
      "inputs": [
        {
          "internalType": "address",
          "name": "governance",
          "type": "address"
        }
      ],
      "name": "initialize",
      "outputs": [],
      "stateMutability": "nonpayable",
      "type": "function"
    },
    {
      "inputs": [
        {
          "internalType": "address",
          "name": "tokenAddress",
          "type": "address"
        },
        {
          "internalType": "uint256",
          "name": "value",
          "type": "uint256"
        }
      ],
      "name": "migrate",
      "outputs": [],
      "stateMutability": "nonpayable",
      "type": "function"
    },
    {
      "inputs": [
        {
          "internalType": "address",
          "name": "token0",
          "type": "address"
        },
        {
          "internalType": "address",
          "name": "token1",
          "type": "address"
        }
      ],
      "name": "pairFor",
      "outputs": [
        {
          "internalType": "address",
          "name": "pool",
          "type": "address"
        }
      ],
      "stateMutability": "view",
      "type": "function"
    },
    {
      "inputs": [
        {
          "internalType": "address",
          "name": "token0",
          "type": "address"
        },
        {
          "internalType": "address",
          "name": "token1",
          "type": "address"
        },
        {
          "internalType": "address",
          "name": "pool",
          "type": "address"
        }
      ],
      "name": "registerPair",
      "outputs": [],
      "stateMutability": "nonpayable",
      "type": "function"
    },
    {
      "inputs": [
        {
          "internalType": "address",
          "name": "src",
          "type": "address"
        },
        {
          "internalType": "address",
          "name": "dest",
          "type": "address"
        },
        {
          "internalType": "address[]",
          "name": "path",
          "type": "address[]"
        }
      ],
      "name": "registerRouterPath",
      "outputs": [],
      "stateMutability": "nonpayable",
      "type": "function"
    },
    {
      "inputs": [
        {
          "internalType": "address",
          "name": "pool",
          "type": "address"
        },
        {
          "internalType": "address",
          "name": "token",
          "type": "address"
        },
        {
          "internalType": "uint256",
          "name": "liquidity",
          "type": "uint256"
        },
        {
          "internalType": "uint256",
          "name": "amountETHMin",
          "type": "uint256"
        },
        {
          "internalType": "address",
          "name": "to",
          "type": "address"
        },
        {
          "internalType": "uint256",
          "name": "deadline",
          "type": "uint256"
        }
      ],
      "name": "removeLiquidityGetTokenAndETH",
      "outputs": [
        {
          "internalType": "uint256",
          "name": "amountToken",
          "type": "uint256"
        },
        {
          "internalType": "uint256",
          "name": "amountETH",
          "type": "uint256"
        }
      ],
      "stateMutability": "payable",
      "type": "function"
    },
    {
      "inputs": [
        {
          "internalType": "address",
          "name": "src",
          "type": "address"
        },
        {
          "internalType": "address",
          "name": "dest",
          "type": "address"
        },
        {
          "internalType": "uint256",
          "name": "amountIn",
          "type": "uint256"
        },
        {
          "internalType": "uint256",
          "name": "amountOutMin",
          "type": "uint256"
        },
        {
          "internalType": "address",
          "name": "to",
          "type": "address"
        },
        {
          "internalType": "address",
          "name": "rewardTo",
          "type": "address"
        },
        {
          "internalType": "uint256",
          "name": "deadline",
          "type": "uint256"
        }
      ],
      "name": "swap",
      "outputs": [
        {
          "internalType": "uint256",
          "name": "amountOut",
          "type": "uint256"
        }
      ],
      "stateMutability": "payable",
      "type": "function"
    },
    {
      "inputs": [
        {
          "internalType": "address",
          "name": "token",
          "type": "address"
        },
        {
          "internalType": "uint256",
          "name": "amountIn",
          "type": "uint256"
        },
        {
          "internalType": "uint256",
          "name": "amountOutMin",
          "type": "uint256"
        },
        {
          "internalType": "address",
          "name": "to",
          "type": "address"
        },
        {
          "internalType": "address",
          "name": "rewardTo",
          "type": "address"
        },
        {
          "internalType": "uint256",
          "name": "deadline",
          "type": "uint256"
        }
      ],
      "name": "swapExactETHForTokens",
      "outputs": [
        {
          "internalType": "uint256",
          "name": "amountOut",
          "type": "uint256"
        }
      ],
      "stateMutability": "payable",
      "type": "function"
    },
    {
      "inputs": [
        {
          "internalType": "address",
          "name": "token",
          "type": "address"
        },
        {
          "internalType": "uint256",
          "name": "amountIn",
          "type": "uint256"
        },
        {
          "internalType": "uint256",
          "name": "amountOutMin",
          "type": "uint256"
        },
        {
          "internalType": "address",
          "name": "to",
          "type": "address"
        },
        {
          "internalType": "address",
          "name": "rewardTo",
          "type": "address"
        },
        {
          "internalType": "uint256",
          "name": "deadline",
          "type": "uint256"
        }
      ],
      "name": "swapExactTokensForETH",
      "outputs": [
        {
          "internalType": "uint256",
          "name": "amountOut",
          "type": "uint256"
        }
      ],
      "stateMutability": "payable",
      "type": "function"
    },
    {
      "inputs": [
        {
          "internalType": "address[]",
          "name": "path",
          "type": "address[]"
        },
        {
          "internalType": "uint256",
          "name": "amountIn",
          "type": "uint256"
        },
        {
          "internalType": "uint256",
          "name": "amountOutMin",
          "type": "uint256"
        },
        {
          "internalType": "address",
          "name": "to",
          "type": "address"
        },
        {
          "internalType": "address",
          "name": "rewardTo",
          "type": "address"
        },
        {
          "internalType": "uint256",
          "name": "deadline",
          "type": "uint256"
        }
      ],
      "name": "swapExactTokensForTokens",
      "outputs": [
        {
          "internalType": "uint256[]",
          "name": "amounts",
          "type": "uint256[]"
        }
      ],
      "stateMutability": "payable",
      "type": "function"
    },
    {
      "inputs": [
        {
          "internalType": "address",
          "name": "newGovernance",
          "type": "address"
        }
      ],
      "name": "update",
      "outputs": [],
      "stateMutability": "nonpayable",
      "type": "function"
    },
    {
      "stateMutability": "payable",
      "type": "receive"
    }
  ],
  "bytecode": "0x608060405234801561001057600080fd5b50612df2806100206000396000f3fe6080604052600436106100f75760003560e01c80639c5afa161161008a578063bfbd029711610059578063bfbd0297146102cf578063c4d66de8146102ef578063e2c4f23b1461030f578063fc4468ca1461032257600080fd5b80639c5afa1614610269578063acdb6cd414610289578063ad68ebf71461029c578063ba9f20b8146102bc57600080fd5b80632f9badd0116100c65780632f9badd0146101bd5780633da83095146101fc57806396ed28f91461021c57806397bcc8571461023c57600080fd5b80631c1b8772146101035780631c2f3e3d146101255780632cb909fc1461017c5780632f59c2d51461019c57600080fd5b366100fe57005b600080fd5b34801561010f57600080fd5b5061012361011e366004612705565b61034a565b005b34801561013157600080fd5b506002546101529073ffffffffffffffffffffffffffffffffffffffff1681565b60405173ffffffffffffffffffffffffffffffffffffffff90911681526020015b60405180910390f35b61018f61018a366004612a98565b610419565b6040516101739190612bfa565b6101af6101aa366004612a46565b6105b5565b604051908152602001610173565b6101d06101cb366004612991565b61079f565b6040805173ffffffffffffffffffffffffffffffffffffffff9093168352602083019190915201610173565b34801561020857600080fd5b5061012361021736600461284a565b610a13565b34801561022857600080fd5b5061015261023736600461273f565b610cd4565b34801561024857600080fd5b5061025c61025736600461273f565b610ce7565b6040516101739190612ba0565b34801561027557600080fd5b506101af610284366004612705565b61100d565b6101af610297366004612a46565b611043565b3480156102a857600080fd5b506101236102b73660046129ec565b61119f565b6101d06102ca366004612991565b611404565b3480156102db57600080fd5b506101236102ea366004612778565b6115de565b3480156102fb57600080fd5b5061012361030a366004612705565b61174c565b6101af61031d3660046128af565b611813565b61033561033036600461292a565b611995565b60408051928352602083019190915201610173565b61035381611c0d565b8073ffffffffffffffffffffffffffffffffffffffff1663593ab5e16040518163ffffffff1660e01b815260040160206040518083038186803b15801561039957600080fd5b505afa1580156103ad573d6000803e3d6000fd5b505050506040513d601f19601f820116820180604052508101906103d19190612722565b600480547fffffffffffffffffffffffff00000000000000000000000000000000000000001673ffffffffffffffffffffffffffffffffffffffff9290921691909117905550565b6060818042111561048b576040517f08c379a000000000000000000000000000000000000000000000000000000000815260206004820152601460248201527f436f466958526f757465723a204558504952454400000000000000000000000060448201526064015b60405180910390fd5b60006104998a8a8a89611e60565b909350905086836104ab60018c612c85565b815181106104bb576104bb612d39565b60200260200101511015610551576040517f08c379a000000000000000000000000000000000000000000000000000000000815260206004820152602360248201527f436f466958526f757465723a20676f74206c657373207468616e20657870656360448201527f74656400000000000000000000000000000000000000000000000000000000006064820152608401610482565b47801561059d5760405173ffffffffffffffffffffffffffffffffffffffff88169082156108fc029083906000818181858888f1935050505015801561059b573d6000803e3d6000fd5b505b6105a78287612146565b505050979650505050505050565b60008180421115610622576040517f08c379a000000000000000000000000000000000000000000000000000000000815260206004820152601460248201527f436f466958526f757465723a20455850495245440000000000000000000000006044820152606401610482565b600061062f60008a612225565b6040517f44c133e200000000000000000000000000000000000000000000000000000000815260006004820181905273ffffffffffffffffffffffffffffffffffffffff8c81166024840152604483018c90528981166064840152336084840152929350918316906344c133e290349060a40160408051808303818588803b1580156106ba57600080fd5b505af11580156106ce573d6000803e3d6000fd5b50505050506040513d601f19601f820116820180604052508101906106f39190612b41565b909450905087841015610788576040517f08c379a000000000000000000000000000000000000000000000000000000000815260206004820152602760248201527f436f466958526f757465723a20676f74206c65737320657468207468616e206560448201527f78706563746564000000000000000000000000000000000000000000000000006064820152608401610482565b6107928187612146565b5050509695505050505050565b600080828042111561080d576040517f08c379a000000000000000000000000000000000000000000000000000000000815260206004820152601460248201527f436f466958526f757465723a20455850495245440000000000000000000000006044820152606401610482565b61081989338c8a612263565b600480546040517ffa28d69200000000000000000000000000000000000000000000000000000000815273ffffffffffffffffffffffffffffffffffffffff8c81169382019390935290821660248201819052604482018b9052606482018a9052336084830152918c169063fa28d69290349060a40160408051808303818588803b1580156108a757600080fd5b505af11580156108bb573d6000803e3d6000fd5b50505050506040513d601f19601f820116820180604052508101906108e09190612a18565b909450925086831015610975576040517f08c379a000000000000000000000000000000000000000000000000000000000815260206004820152602960248201527f436f466958526f757465723a206c657373206c6971756964697479207468616e60448201527f20657870656374656400000000000000000000000000000000000000000000006064820152608401610482565b6040517f348964bd00000000000000000000000000000000000000000000000000000000815273ffffffffffffffffffffffffffffffffffffffff858116600483015287811660248301526044820185905282169063348964bd90606401600060405180830381600087803b1580156109ed57600080fd5b505af1158015610a01573d6000803e3d6000fd5b50505050505097509795505050505050565b6002546040517f91e1472b0000000000000000000000000000000000000000000000000000000081523360048201526000602482015273ffffffffffffffffffffffffffffffffffffffff909116906391e1472b9060440160206040518083038186803b158015610a8357600080fd5b505afa158015610a97573d6000803e3d6000fd5b505050506040513d601f19601f82011682018060405250810190610abb9190612b1f565b610b21576040517f08c379a000000000000000000000000000000000000000000000000000000000815260206004820152600a60248201527f436f4669583a21676f76000000000000000000000000000000000000000000006044820152606401610482565b81816000818110610b3457610b34612d39565b9050602002016020810190610b499190612705565b73ffffffffffffffffffffffffffffffffffffffff168473ffffffffffffffffffffffffffffffffffffffff1614610bdd576040517f08c379a000000000000000000000000000000000000000000000000000000000815260206004820152601e60248201527f436f466958526f757465723a20666972737420746f6b656e206572726f7200006044820152606401610482565b8181610bea600182612c85565b818110610bf957610bf9612d39565b9050602002016020810190610c0e9190612705565b73ffffffffffffffffffffffffffffffffffffffff168373ffffffffffffffffffffffffffffffffffffffff1614610ca2576040517f08c379a000000000000000000000000000000000000000000000000000000000815260206004820152601d60248201527f436f466958526f757465723a206c61737420746f6b656e206572726f720000006044820152606401610482565b818160066000610cb28888612401565b81526020019081526020016000209190610ccd929190612623565b5050505050565b6000610ce08383612225565b9392505050565b606060066000610cf78585612401565b8152602001908152602001600020805480602002602001604051908101604052809291908181526020018280548015610d6657602002820191906000526020600020905b815473ffffffffffffffffffffffffffffffffffffffff168152600190910190602001808311610d3b575b505050505090506000815190508181610d7e90612c9c565b91508181518110610d9157610d91612d39565b602002602001015173ffffffffffffffffffffffffffffffffffffffff168473ffffffffffffffffffffffffffffffffffffffff16148015610e18575081600081518110610de157610de1612d39565b602002602001015173ffffffffffffffffffffffffffffffffffffffff168373ffffffffffffffffffffffffffffffffffffffff16145b15610f075760005b81811015610f01576000838281518110610e3c57610e3c612d39565b60200260200101519050838381518110610e5857610e58612d39565b6020026020010151848380610e6c90612cd1565b945081518110610e7e57610e7e612d39565b73ffffffffffffffffffffffffffffffffffffffff90921660209283029190910190910152808484610eaf81612c9c565b955081518110610ec157610ec1612d39565b602002602001019073ffffffffffffffffffffffffffffffffffffffff16908173ffffffffffffffffffffffffffffffffffffffff168152505050610e20565b50611006565b81600081518110610f1a57610f1a612d39565b602002602001015173ffffffffffffffffffffffffffffffffffffffff168473ffffffffffffffffffffffffffffffffffffffff16148015610fa05750818181518110610f6957610f69612d39565b602002602001015173ffffffffffffffffffffffffffffffffffffffff168373ffffffffffffffffffffffffffffffffffffffff16145b611006576040517f08c379a000000000000000000000000000000000000000000000000000000000815260206004820152601760248201527f436f466958526f757465723a2070617468206572726f720000000000000000006044820152606401610482565b5092915050565b60015460009073ffffffffffffffffffffffffffffffffffffffff8381169116141561103b57505060035490565b506000919050565b600081804211156110b0576040517f08c379a000000000000000000000000000000000000000000000000000000000815260206004820152601460248201527f436f466958526f757465723a20455850495245440000000000000000000000006044820152606401610482565b60006110bd60008a612225565b90506110cb8933838b612263565b6040517f44c133e200000000000000000000000000000000000000000000000000000000815273ffffffffffffffffffffffffffffffffffffffff8a81166004830152600060248301819052604483018b9052888216606484015233608484015291908316906344c133e290349060a40160408051808303818588803b15801561115457600080fd5b505af1158015611168573d6000803e3d6000fd5b50505050506040513d601f19601f8201168201806040525081019061118d9190612b41565b90945090508784101561078857600080fd5b6002546040517f91e1472b0000000000000000000000000000000000000000000000000000000081523360048201526000602482015273ffffffffffffffffffffffffffffffffffffffff909116906391e1472b9060440160206040518083038186803b15801561120f57600080fd5b505afa158015611223573d6000803e3d6000fd5b505050506040513d601f19601f820116820180604052508101906112479190612b1f565b6112ad576040517f08c379a000000000000000000000000000000000000000000000000000000000815260206004820152600a60248201527f436f4669583a21676f76000000000000000000000000000000000000000000006044820152606401610482565b600254604080517f96776492000000000000000000000000000000000000000000000000000000008152905160009273ffffffffffffffffffffffffffffffffffffffff16916396776492916004808301926020929190829003018186803b15801561131857600080fd5b505afa15801561132c573d6000803e3d6000fd5b505050506040513d601f19601f820116820180604052508101906113509190612722565b905073ffffffffffffffffffffffffffffffffffffffff83166113f4576040517fdaa78c0f0000000000000000000000000000000000000000000000000000000081526000600482015273ffffffffffffffffffffffffffffffffffffffff82169063daa78c0f9084906024016000604051808303818588803b1580156113d657600080fd5b505af11580156113ea573d6000803e3d6000fd5b5050505050505050565b6113ff83828461246c565b505050565b6000808280421115611472576040517f08c379a000000000000000000000000000000000000000000000000000000000815260206004820152601460248201527f436f466958526f757465723a20455850495245440000000000000000000000006044820152606401610482565b61147e89338c8a612263565b6040517ffa28d69200000000000000000000000000000000000000000000000000000000815273ffffffffffffffffffffffffffffffffffffffff8a811660048301528681166024830152604482018a9052606482018990523360848301528b169063fa28d69290349060a40160408051808303818588803b15801561150357600080fd5b505af1158015611517573d6000803e3d6000fd5b50505050506040513d601f19601f8201168201806040525081019061153c9190612a18565b9093509150858210156115d1576040517f08c379a000000000000000000000000000000000000000000000000000000000815260206004820152602960248201527f436f466958526f757465723a206c657373206c6971756964697479207468616e60448201527f20657870656374656400000000000000000000000000000000000000000000006064820152608401610482565b5097509795505050505050565b6002546040517f91e1472b0000000000000000000000000000000000000000000000000000000081523360048201526000602482015273ffffffffffffffffffffffffffffffffffffffff909116906391e1472b9060440160206040518083038186803b15801561164e57600080fd5b505afa158015611662573d6000803e3d6000fd5b505050506040513d601f19601f820116820180604052508101906116869190612b1f565b6116ec576040517f08c379a000000000000000000000000000000000000000000000000000000000815260206004820152600a60248201527f436f4669583a21676f76000000000000000000000000000000000000000000006044820152606401610482565b80600560006116fb8686612401565b815260200190815260200160002060006101000a81548173ffffffffffffffffffffffffffffffffffffffff021916908373ffffffffffffffffffffffffffffffffffffffff160217905550505050565b60025473ffffffffffffffffffffffffffffffffffffffff16156117cc576040517f08c379a000000000000000000000000000000000000000000000000000000000815260206004820152601160248201527f436f4669583a21696e697469616c697a650000000000000000000000000000006044820152606401610482565b600280547fffffffffffffffffffffffff00000000000000000000000000000000000000001673ffffffffffffffffffffffffffffffffffffffff92909216919091179055565b60008180421115611880576040517f08c379a000000000000000000000000000000000000000000000000000000000815260206004820152601460248201527f436f466958526f757465723a20455850495245440000000000000000000000006044820152606401610482565b600061188c8a8a612225565b905073ffffffffffffffffffffffffffffffffffffffff8a16156118b6576118b68a33838b612263565b6040517f44c133e200000000000000000000000000000000000000000000000000000000815273ffffffffffffffffffffffffffffffffffffffff8b811660048301528a81166024830152604482018a90528781166064830152336084830152600091908316906344c133e290349060a40160408051808303818588803b15801561194057600080fd5b505af1158015611954573d6000803e3d6000fd5b50505050506040513d601f19601f820116820180604052508101906119799190612b41565b90945090508784101561198b57600080fd5b6105a78187612146565b6000808280421115611a03576040517f08c379a000000000000000000000000000000000000000000000000000000000815260206004820152601460248201527f436f466958526f757465723a20455850495245440000000000000000000000006044820152606401610482565b6040517f4cb2b6b100000000000000000000000000000000000000000000000000000000815273ffffffffffffffffffffffffffffffffffffffff8981166004830152600091908b1690634cb2b6b19060240160206040518083038186803b158015611a6e57600080fd5b505afa158015611a82573d6000803e3d6000fd5b505050506040513d601f19601f82011682018060405250810190611aa69190612722565b9050611ab481338c8b612263565b6040517ffa291e5300000000000000000000000000000000000000000000000000000000815273ffffffffffffffffffffffffffffffffffffffff8a811660048301528781166024830152604482018a90523360648301528b169063fa291e5390349060840160408051808303818588803b158015611b3257600080fd5b505af1158015611b46573d6000803e3d6000fd5b50505050506040513d601f19601f82011682018060405250810190611b6b9190612b41565b909450925086831015611c00576040517f08c379a000000000000000000000000000000000000000000000000000000000815260206004820152602360248201527f436f466958526f757465723a206c65737320657468207468616e20657870656360448201527f74656400000000000000000000000000000000000000000000000000000000006064820152608401610482565b5050965096945050505050565b60025473ffffffffffffffffffffffffffffffffffffffff1633811480611cd357506040517f91e1472b0000000000000000000000000000000000000000000000000000000081523360048201526000602482015273ffffffffffffffffffffffffffffffffffffffff8216906391e1472b9060440160206040518083038186803b158015611c9b57600080fd5b505afa158015611caf573d6000803e3d6000fd5b505050506040513d601f19601f82011682018060405250810190611cd39190612b1f565b611d39576040517f08c379a000000000000000000000000000000000000000000000000000000000815260206004820152600a60248201527f436f4669583a21676f76000000000000000000000000000000000000000000006044820152606401610482565b600280547fffffffffffffffffffffffff00000000000000000000000000000000000000001673ffffffffffffffffffffffffffffffffffffffff8416908117909155604080517f746b56f9000000000000000000000000000000000000000000000000000000008152905163746b56f99160048082019260c092909190829003018186803b158015611dcb57600080fd5b505afa158015611ddf573d6000803e3d6000fd5b505050506040513d601f19601f82011682018060405250810190611e0391906127c3565b50506001805473ffffffffffffffffffffffffffffffffffffffff9485167fffffffffffffffffffffffff000000000000000000000000000000000000000091821617909155600080549590941694169390931790915550505050565b606060008467ffffffffffffffff811115611e7d57611e7d612d68565b604051908082528060200260200182016040528015611ea6578160200160208202803683370190505b5091508382600081518110611ebd57611ebd612d39565b60209081029190910101525060008086868281611edc57611edc612d39565b9050602002016020810190611ef19190612705565b9050600087876001818110611f0857611f08612d39565b9050602002016020810190611f1d9190612705565b90506000611f2b8383612225565b905073ffffffffffffffffffffffffffffffffffffffff831615611f5557611f558387838a612263565b600060015b8773ffffffffffffffffffffffffffffffffffffffff8b611f7a84612cd1565b9350831015611fb9578c8c84818110611f9557611f95612d39565b9050602002016020810190611faa9190612705565b9050611fb68682612225565b91505b8473ffffffffffffffffffffffffffffffffffffffff166344c133e24789898f600073ffffffffffffffffffffffffffffffffffffffff168c73ffffffffffffffffffffffffffffffffffffffff16146120135787612015565b305b60405160e087901b7fffffffff0000000000000000000000000000000000000000000000000000000016815273ffffffffffffffffffffffffffffffffffffffff948516600482015292841660248401526044830191909152909116606482015230608482015260a40160408051808303818588803b15801561209757600080fd5b505af11580156120ab573d6000803e3d6000fd5b50505050506040513d601f19601f820116820180604052508101906120d09190612b41565b909b5093506120df8489612c32565b97508a896120ee600186612c85565b815181106120fe576120fe612d39565b602090810291909101015273ffffffffffffffffffffffffffffffffffffffff808216141561212e575050612138565b9495509250611f5a565b505050505094509492505050565b8115612221576000612159600a84612c4a565b60005490915073ffffffffffffffffffffffffffffffffffffffff166340c10f19836121858487612c85565b6040517fffffffff0000000000000000000000000000000000000000000000000000000060e085901b16815273ffffffffffffffffffffffffffffffffffffffff90921660048301526024820152604401600060405180830381600087803b1580156121f057600080fd5b505af1158015612204573d6000803e3d6000fd5b50505050806003600082825461221a9190612c32565b9091555050505b5050565b6000600560006122358585612401565b815260208101919091526040016000205473ffffffffffffffffffffffffffffffffffffffff169392505050565b6040805173ffffffffffffffffffffffffffffffffffffffff85811660248301528481166044830152606480830185905283518084039091018152608490920183526020820180517bffffffffffffffffffffffffffffffffffffffffffffffffffffffff167f23b872dd0000000000000000000000000000000000000000000000000000000017905291516000928392908816916123029190612b65565b6000604051808303816000865af19150503d806000811461233f576040519150601f19603f3d011682016040523d82523d6000602084013e612344565b606091505b509150915081801561236e57508051158061236e57508080602001905181019061236e9190612b1f565b6123f9576040517f08c379a0000000000000000000000000000000000000000000000000000000008152602060048201526024808201527f5472616e7366657248656c7065723a205452414e534645525f46524f4d5f464160448201527f494c4544000000000000000000000000000000000000000000000000000000006064820152608401610482565b505050505050565b600061240d83836125d5565b6040517fffffffffffffffffffffffffffffffffffffffff000000000000000000000000606084811b8216602084015283901b166034820152919450925060480160405160208183030381529060405280519060200120905092915050565b6040805173ffffffffffffffffffffffffffffffffffffffff8481166024830152604480830185905283518084039091018152606490920183526020820180517bffffffffffffffffffffffffffffffffffffffffffffffffffffffff167fa9059cbb0000000000000000000000000000000000000000000000000000000017905291516000928392908716916125039190612b65565b6000604051808303816000865af19150503d8060008114612540576040519150601f19603f3d011682016040523d82523d6000602084013e612545565b606091505b509150915081801561256f57508051158061256f57508080602001905181019061256f9190612b1f565b610ccd576040517f08c379a000000000000000000000000000000000000000000000000000000000815260206004820152601f60248201527f5472616e7366657248656c7065723a205452414e534645525f4641494c4544006044820152606401610482565b6000808273ffffffffffffffffffffffffffffffffffffffff168473ffffffffffffffffffffffffffffffffffffffff16101561261657508290508161261c565b50819050825b9250929050565b82805482825590600052602060002090810192821561269b579160200282015b8281111561269b5781547fffffffffffffffffffffffff00000000000000000000000000000000000000001673ffffffffffffffffffffffffffffffffffffffff843516178255602090920191600190910190612643565b506126a79291506126ab565b5090565b5b808211156126a757600081556001016126ac565b60008083601f8401126126d257600080fd5b50813567ffffffffffffffff8111156126ea57600080fd5b6020830191508360208260051b850101111561261c57600080fd5b60006020828403121561271757600080fd5b8135610ce081612d97565b60006020828403121561273457600080fd5b8151610ce081612d97565b6000806040838503121561275257600080fd5b823561275d81612d97565b9150602083013561276d81612d97565b809150509250929050565b60008060006060848603121561278d57600080fd5b833561279881612d97565b925060208401356127a881612d97565b915060408401356127b881612d97565b809150509250925092565b60008060008060008060c087890312156127dc57600080fd5b86516127e781612d97565b60208801519096506127f881612d97565b604088015190955061280981612d97565b606088015190945061281a81612d97565b608088015190935061282b81612d97565b60a088015190925061283c81612d97565b809150509295509295509295565b6000806000806060858703121561286057600080fd5b843561286b81612d97565b9350602085013561287b81612d97565b9250604085013567ffffffffffffffff81111561289757600080fd5b6128a3878288016126c0565b95989497509550505050565b600080600080600080600060e0888a0312156128ca57600080fd5b87356128d581612d97565b965060208801356128e581612d97565b95506040880135945060608801359350608088013561290381612d97565b925060a088013561291381612d97565b8092505060c0880135905092959891949750929550565b60008060008060008060c0878903121561294357600080fd5b863561294e81612d97565b9550602087013561295e81612d97565b94506040870135935060608701359250608087013561297c81612d97565b8092505060a087013590509295509295509295565b600080600080600080600060e0888a0312156129ac57600080fd5b87356129b781612d97565b965060208801356129c781612d97565b955060408801359450606088013593506080880135925060a088013561291381612d97565b600080604083850312156129ff57600080fd5b8235612a0a81612d97565b946020939093013593505050565b60008060408385031215612a2b57600080fd5b8251612a3681612d97565b6020939093015192949293505050565b60008060008060008060c08789031215612a5f57600080fd5b8635612a6a81612d97565b955060208701359450604087013593506060870135612a8881612d97565b9250608087013561297c81612d97565b600080600080600080600060c0888a031215612ab357600080fd5b873567ffffffffffffffff811115612aca57600080fd5b612ad68a828b016126c0565b90985096505060208801359450604088013593506060880135612af881612d97565b92506080880135612b0881612d97565b8092505060a0880135905092959891949750929550565b600060208284031215612b3157600080fd5b81518015158114610ce057600080fd5b60008060408385031215612b5457600080fd5b505080516020909101519092909150565b6000825160005b81811015612b865760208186018101518583015201612b6c565b81811115612b95576000828501525b509190910192915050565b6020808252825182820181905260009190848201906040850190845b81811015612bee57835173ffffffffffffffffffffffffffffffffffffffff1683529284019291840191600101612bbc565b50909695505050505050565b6020808252825182820181905260009190848201906040850190845b81811015612bee57835183529284019291840191600101612c16565b60008219821115612c4557612c45612d0a565b500190565b600082612c80577f4e487b7100000000000000000000000000000000000000000000000000000000600052601260045260246000fd5b500490565b600082821015612c9757612c97612d0a565b500390565b600081612cab57612cab612d0a565b507fffffffffffffffffffffffffffffffffffffffffffffffffffffffffffffffff0190565b60007fffffffffffffffffffffffffffffffffffffffffffffffffffffffffffffffff821415612d0357612d03612d0a565b5060010190565b7f4e487b7100000000000000000000000000000000000000000000000000000000600052601160045260246000fd5b7f4e487b7100000000000000000000000000000000000000000000000000000000600052603260045260246000fd5b7f4e487b7100000000000000000000000000000000000000000000000000000000600052604160045260246000fd5b73ffffffffffffffffffffffffffffffffffffffff81168114612db957600080fd5b5056fea26469706673582212207a0e85992b8bbd6ab99109040a139b195b2a4ec46038bfa8668c45c6b0a8649d64736f6c63430008060033",
  "linkReferences": {},
  "deployedLinkReferences": {}
}