{
  "_format": "hh-sol-artifact-1",
  "contractName": "CoFiXAnchorPool",
  "sourceName": "contracts/CoFiXAnchorPool.sol",
  "abi": [
    {
      "inputs": [],
      "stateMutability": "nonpayable",
      "type": "constructor"
    },
    {
      "anonymous": false,
      "inputs": [
        {
          "indexed": false,
          "internalType": "address",
          "name": "token",
          "type": "address"
        },
        {
          "indexed": false,
          "internalType": "address",
          "name": "to",
          "type": "address"
        },
        {
          "indexed": false,
          "internalType": "uint256",
          "name": "liquidity",
          "type": "uint256"
        },
        {
          "indexed": false,
          "internalType": "uint256",
          "name": "amountETHOut",
          "type": "uint256"
        },
        {
          "indexed": false,
          "internalType": "uint256",
          "name": "amountTokenOut",
          "type": "uint256"
        }
      ],
      "name": "Burn",
      "type": "event"
    },
    {
      "anonymous": false,
      "inputs": [
        {
          "indexed": false,
          "internalType": "address",
          "name": "token",
          "type": "address"
        },
        {
          "indexed": false,
          "internalType": "address",
          "name": "to",
          "type": "address"
        },
        {
          "indexed": false,
          "internalType": "uint256",
          "name": "amountETH",
          "type": "uint256"
        },
        {
          "indexed": false,
          "internalType": "uint256",
          "name": "amountToken",
          "type": "uint256"
        },
        {
          "indexed": false,
          "internalType": "uint256",
          "name": "liquidity",
          "type": "uint256"
        }
      ],
      "name": "Mint",
      "type": "event"
    },
    {
      "inputs": [],
      "name": "_governance",
      "outputs": [
        {
          "internalType": "address",
          "name": "",
          "type": "address"
        }
      ],
      "stateMutability": "view",
      "type": "function"
    },
    {
      "inputs": [
        {
          "internalType": "address",
          "name": "token",
          "type": "address"
        },
        {
          "internalType": "address",
          "name": "to",
          "type": "address"
        },
        {
          "internalType": "uint256",
          "name": "liquidity",
          "type": "uint256"
        },
        {
          "internalType": "address",
          "name": "payback",
          "type": "address"
        }
      ],
      "name": "burn",
      "outputs": [
        {
          "internalType": "uint256",
          "name": "amountETHOut",
          "type": "uint256"
        },
        {
          "internalType": "uint256",
          "name": "amountTokenOut",
          "type": "uint256"
        }
      ],
      "stateMutability": "payable",
      "type": "function"
    },
    {
      "inputs": [
        {
          "internalType": "address",
          "name": "token",
          "type": "address"
        },
        {
          "internalType": "uint256",
          "name": "newBalance",
          "type": "uint256"
        }
      ],
      "name": "estimate",
      "outputs": [
        {
          "internalType": "uint256",
          "name": "mined",
          "type": "uint256"
        }
      ],
      "stateMutability": "view",
      "type": "function"
    },
    {
      "inputs": [],
      "name": "getConfig",
      "outputs": [
        {
          "internalType": "uint16",
          "name": "theta",
          "type": "uint16"
        },
        {
          "internalType": "uint16",
          "name": "gamma",
          "type": "uint16"
        },
        {
          "internalType": "uint56",
          "name": "nt",
          "type": "uint56"
        }
      ],
      "stateMutability": "view",
      "type": "function"
    },
    {
      "inputs": [
        {
          "internalType": "address",
          "name": "token",
          "type": "address"
        }
      ],
      "name": "getXToken",
      "outputs": [
        {
          "internalType": "address",
          "name": "",
          "type": "address"
        }
      ],
      "stateMutability": "view",
      "type": "function"
    },
    {
      "inputs": [
        {
          "internalType": "address",
          "name": "governance",
          "type": "address"
        },
        {
          "internalType": "uint256",
          "name": "index",
          "type": "uint256"
        },
        {
          "internalType": "address[]",
          "name": "tokens",
          "type": "address[]"
        },
        {
          "internalType": "uint96[]",
          "name": "bases",
          "type": "uint96[]"
        }
      ],
      "name": "init",
      "outputs": [],
      "stateMutability": "nonpayable",
      "type": "function"
    },
    {
      "inputs": [
        {
          "internalType": "address",
          "name": "governance",
          "type": "address"
        }
      ],
      "name": "initialize",
      "outputs": [],
      "stateMutability": "nonpayable",
      "type": "function"
    },
    {
      "inputs": [
        {
          "internalType": "address",
          "name": "tokenAddress",
          "type": "address"
        },
        {
          "internalType": "uint256",
          "name": "value",
          "type": "uint256"
        }
      ],
      "name": "migrate",
      "outputs": [],
      "stateMutability": "nonpayable",
      "type": "function"
    },
    {
      "inputs": [
        {
          "internalType": "address",
          "name": "token",
          "type": "address"
        },
        {
          "internalType": "address",
          "name": "to",
          "type": "address"
        },
        {
          "internalType": "uint256",
          "name": "amountETH",
          "type": "uint256"
        },
        {
          "internalType": "uint256",
          "name": "amountToken",
          "type": "uint256"
        },
        {
          "internalType": "address",
          "name": "payback",
          "type": "address"
        }
      ],
      "name": "mint",
      "outputs": [
        {
          "internalType": "address",
          "name": "xtoken",
          "type": "address"
        },
        {
          "internalType": "uint256",
          "name": "liquidity",
          "type": "uint256"
        }
      ],
      "stateMutability": "payable",
      "type": "function"
    },
    {
      "inputs": [
        {
          "internalType": "uint16",
          "name": "theta",
          "type": "uint16"
        },
        {
          "internalType": "uint16",
          "name": "gamma",
          "type": "uint16"
        },
        {
          "internalType": "uint56",
          "name": "nt",
          "type": "uint56"
        }
      ],
      "name": "setConfig",
      "outputs": [],
      "stateMutability": "nonpayable",
      "type": "function"
    },
    {
      "inputs": [],
      "name": "skim",
      "outputs": [],
      "stateMutability": "nonpayable",
      "type": "function"
    },
    {
      "inputs": [
        {
          "internalType": "address",
          "name": "src",
          "type": "address"
        },
        {
          "internalType": "address",
          "name": "dest",
          "type": "address"
        },
        {
          "internalType": "uint256",
          "name": "amountIn",
          "type": "uint256"
        },
        {
          "internalType": "address",
          "name": "to",
          "type": "address"
        },
        {
          "internalType": "address",
          "name": "payback",
          "type": "address"
        }
      ],
      "name": "swap",
      "outputs": [
        {
          "internalType": "uint256",
          "name": "amountOut",
          "type": "uint256"
        },
        {
          "internalType": "uint256",
          "name": "mined",
          "type": "uint256"
        }
      ],
      "stateMutability": "payable",
      "type": "function"
    },
    {
      "inputs": [
        {
          "internalType": "address",
          "name": "newGovernance",
          "type": "address"
        }
      ],
      "name": "update",
      "outputs": [],
      "stateMutability": "nonpayable",
      "type": "function"
    }
  ],
  "bytecode": "0x608060405234801561001057600080fd5b50613fdd806100206000396000f3fe608060405260043610620000e35760003560e01c8063738240fb1162000089578063c3f909d41162000060578063c3f909d41462000275578063c4d66de814620002e0578063fa28d6921462000305578063fa291e53146200034957600080fd5b8063738240fb14620001f7578063a04bdb64146200021c578063ad68ebf7146200025057600080fd5b80633ae92ba111620000be5780633ae92ba1146200018057806344c133e214620001a55780634cb2b6b114620001d257600080fd5b80631c1b877214620000e85780631c2f3e3d146200010f5780631dd19cb41462000168575b600080fd5b348015620000f557600080fd5b506200010d6200010736600462002d50565b62000360565b005b3480156200011c57600080fd5b506002546200013e9073ffffffffffffffffffffffffffffffffffffffff1681565b60405173ffffffffffffffffffffffffffffffffffffffff90911681526020015b60405180910390f35b3480156200017557600080fd5b506200010d62000445565b3480156200018d57600080fd5b506200010d6200019f36600462002f7d565b6200061f565b620001bc620001b636600462002e85565b62000920565b604080519283526020830191909152016200015f565b348015620001df57600080fd5b506200013e620001f136600462002d50565b62000e27565b3480156200020457600080fd5b506200010d6200021636600462003036565b62000eb0565b3480156200022957600080fd5b50620002416200023b36600462002f4e565b620010d1565b6040519081526020016200015f565b3480156200025d57600080fd5b506200010d6200026f36600462002f4e565b62001361565b3480156200028257600080fd5b506004546040805174010000000000000000000000000000000000000000830461ffff1681526000602082015276010000000000000000000000000000000000000000000090920466ffffffffffffff16908201526060016200015f565b348015620002ed57600080fd5b506200010d620002ff36600462002d50565b620015cb565b6200031c6200031636600462002ef6565b62001694565b6040805173ffffffffffffffffffffffffffffffffffffffff90931683526020830191909152016200015f565b620001bc6200035a36600462002e2b565b62001bc4565b6200036b8162001f7e565b8073ffffffffffffffffffffffffffffffffffffffff1663746b56f96040518163ffffffff1660e01b815260040160c06040518083038186803b158015620003b257600080fd5b505afa158015620003c7573d6000803e3d6000fd5b505050506040513d601f19601f82011682018060405250810190620003ed919062002d97565b50506004805473ffffffffffffffffffffffffffffffffffffffff9283167fffffffffffffffffffffffff00000000000000000000000000000000000000009182161790915560038054929093169116179055505050565b60008060008080600080600580549050905060005b81811015620005f2576000600582815481106200047b576200047b620032ff565b600091825260208220600390910201805490925073ffffffffffffffffffffffffffffffffffffffff1690620004b182620021dc565b83549091507401000000000000000000000000000000000000000090046bffffffffffffffffffffffff16600081620004f384670de0b6b3a7640000620031c5565b620004ff9190620031ae565b90506200050d818e62003193565b9c508460010160009054906101000a900473ffffffffffffffffffffffffffffffffffffffff1673ffffffffffffffffffffffffffffffffffffffff166318160ddd6040518163ffffffff1660e01b815260040160206040518083038186803b1580156200057a57600080fd5b505afa1580156200058f573d6000803e3d6000fd5b505050506040513d601f19601f82011682018060405250810190620005b591906200308f565b620005c1908d62003193565b9b50808b1015620005d957819950829850839750809a505b505050505080620005ea906200324e565b90506200045a565b50858711156200061657620006166200060c878962003205565b83868633620022aa565b50505050505050565b6200062a86620015cb565b600062000637866200251d565b905060005b84811015620009165760008686838181106200065c576200065c620032ff565b905060200201602081019062000673919062002d50565b60058054600181019182905573ffffffffffffffffffffffffffffffffffffffff831660009081526006602052604081209290925591925060039091027f036b6384b5eca791c62761152d0c79bb0604c104a5fb6f4eb0703f3154bb3db00190620006de846200251d565b905060006200076e620007676200072b6040518060400160405280600781526020017f58546f6b656e2d0000000000000000000000000000000000000000000000000081525089620026b9565b6040518060400160405280600181526020017f2d00000000000000000000000000000000000000000000000000000000000000815250620026b9565b83620026b9565b90506000620007c2620007bb6200072b6040518060400160405280600381526020017f58542d00000000000000000000000000000000000000000000000000000000008152508a620026b9565b84620026b9565b84547fffffffffffffffffffffffff00000000000000000000000000000000000000001673ffffffffffffffffffffffffffffffffffffffff8716178555604051909150829082903090620008179062002ce0565b620008259392919062003143565b604051809103906000f08015801562000842573d6000803e3d6000fd5b506001850180547fffffffffffffffffffffffff00000000000000000000000000000000000000001673ffffffffffffffffffffffffffffffffffffffff929092169190911790558888878181106200089f576200089f620032ff565b9050602002016020810190620008b69190620030a9565b84546bffffffffffffffffffffffff91909116740100000000000000000000000000000000000000000273ffffffffffffffffffffffffffffffffffffffff90911617909355506200090e92508391506200324e9050565b90506200063c565b5050505050505050565b600454600090819073ffffffffffffffffffffffffffffffffffffffff163314620009d2576040517f08c379a000000000000000000000000000000000000000000000000000000000815260206004820152602560248201527f436f466958416e63686f72506f6f6c3a204f6e6c7920666f7220436f4669585260448201527f6f7574657200000000000000000000000000000000000000000000000000000060648201526084015b60405180910390fd5b6004547d010000000000000000000000000000000000000000000000000000000000900460ff161562000a62576040517f08c379a000000000000000000000000000000000000000000000000000000000815260206004820152601760248201527f436f466958416e63686f72506f6f6c3a204c4f434b45440000000000000000006044820152606401620009c9565b600480547fffff00ffffffffffffffffffffffffffffffffffffffffffffffffffffffffff167d01000000000000000000000000000000000000000000000000000000000017905573ffffffffffffffffffffffffffffffffffffffff871662000ae55762000adf60008462000ad9883462003205565b6200288a565b62000b31565b341562000b315760405173ffffffffffffffffffffffffffffffffffffffff8416903480156108fc02916000818181858888f1935050505015801562000b2f573d6000803e3d6000fd5b505b73ffffffffffffffffffffffffffffffffffffffff871660009081526006602052604081205460059062000b689060019062003205565b8154811062000b7b5762000b7b620032ff565b6000918252602080832073ffffffffffffffffffffffffffffffffffffffff8b16845260069091526040832054600390920201925060059062000bc19060019062003205565b8154811062000bd45762000bd4620032ff565b60009182526020909120835460039092020180549092506bffffffffffffffffffffffff7401000000000000000000000000000000000000000092839004811692909104168162000c26828b620031c5565b62000c329190620031ae565b6004549096506000906127109062000c679074010000000000000000000000000000000000000000900461ffff1689620031c5565b62000c739190620031ae565b905062000c81818862003205565b965073ffffffffffffffffffffffffffffffffffffffff8b1662000d2c576003546040517fdaa78c0f00000000000000000000000000000000000000000000000000000000815230600482015273ffffffffffffffffffffffffffffffffffffffff9091169063daa78c0f9083906024016000604051808303818588803b15801562000d0c57600080fd5b505af115801562000d21573d6000803e3d6000fd5b505050505062000d53565b60035462000d53908c9073ffffffffffffffffffffffffffffffffffffffff16836200288a565b50600454760100000000000000000000000000000000000000000000900466ffffffffffffff1662000db2858462000d8b8f620021dc565b62000d9f90670de0b6b3a7640000620031c5565b62000dab9190620031ae565b8362002904565b955062000dd284838962000dc68f620021dc565b62000d8b919062003205565b62000dde908762003193565b955062000ded8b8a896200288a565b5050600480547fffff00ffffffffffffffffffffffffffffffffffffffffffffffffffffffffff1690555092989197509095505050505050565b73ffffffffffffffffffffffffffffffffffffffff8116600090815260066020526040812054801562000ea757600562000e6360018362003205565b8154811062000e765762000e76620032ff565b600091825260209091206001600390920201015473ffffffffffffffffffffffffffffffffffffffff169392505050565b50600092915050565b6002546040517f91e1472b0000000000000000000000000000000000000000000000000000000081523360048201526000602482015273ffffffffffffffffffffffffffffffffffffffff909116906391e1472b9060440160206040518083038186803b15801562000f2157600080fd5b505afa15801562000f36573d6000803e3d6000fd5b505050506040513d601f19601f8201168201806040525081019062000f5c919062003012565b62000fc4576040517f08c379a000000000000000000000000000000000000000000000000000000000815260206004820152600a60248201527f436f4669583a21676f76000000000000000000000000000000000000000000006044820152606401620009c9565b6004805461ffff80861674010000000000000000000000000000000000000000027fffffffffffffffffffff0000ffffffffffffffffffffffffffffffffffffffff909216919091179091558216156200107b576040517f08c379a000000000000000000000000000000000000000000000000000000000815260206004820181905260248201527f436f466958416e63686f72506f6f6c3a2067616d6d61206d75737420626520306044820152606401620009c9565b6004805466ffffffffffffff909216760100000000000000000000000000000000000000000000027fffffff00000000000000ffffffffffffffffffffffffffffffffffffffffffff9092169190911790555050565b73ffffffffffffffffffffffffffffffffffffffff821660009081526006602052604081205481906005906200110a9060019062003205565b815481106200111d576200111d620032ff565b9060005260206000209060030201905060008160010160009054906101000a900473ffffffffffffffffffffffffffffffffffffffff1673ffffffffffffffffffffffffffffffffffffffff166318160ddd6040518163ffffffff1660e01b815260040160206040518083038186803b1580156200119a57600080fd5b505afa158015620011af573d6000803e3d6000fd5b505050506040513d601f19601f82011682018060405250810190620011d591906200308f565b82549091506000907401000000000000000000000000000000000000000090046bffffffffffffffffffffffff166200121786670de0b6b3a7640000620031c5565b620012239190620031ae565b9050600081831162001241576200123b838362003205565b6200124d565b6200124d828462003205565b60028501549091506e01000000000000000000000000000090046dffffffffffffffffffffffffffff168181111562001356576002850154600090633b9aca0090620012c0907c0100000000000000000000000000000000000000000000000000000000900463ffffffff164362003205565b600454620012f290760100000000000000000000000000000000000000000000900466ffffffffffffff1685620031c5565b620012fe9190620031c5565b6200130a9190620031ae565b60028701546200132b91906dffffffffffffffffffffffffffff1662003193565b9050816200133a848262003205565b620013469083620031c5565b620013529190620031ae565b9650505b505050505092915050565b6002546040517f91e1472b0000000000000000000000000000000000000000000000000000000081523360048201526000602482015273ffffffffffffffffffffffffffffffffffffffff909116906391e1472b9060440160206040518083038186803b158015620013d257600080fd5b505afa158015620013e7573d6000803e3d6000fd5b505050506040513d601f19601f820116820180604052508101906200140d919062003012565b62001475576040517f08c379a000000000000000000000000000000000000000000000000000000000815260206004820152600a60248201527f436f4669583a21676f76000000000000000000000000000000000000000000006044820152606401620009c9565b600254604080517f96776492000000000000000000000000000000000000000000000000000000008152905160009273ffffffffffffffffffffffffffffffffffffffff16916396776492916004808301926020929190829003018186803b158015620014e157600080fd5b505afa158015620014f6573d6000803e3d6000fd5b505050506040513d601f19601f820116820180604052508101906200151c919062002d77565b905073ffffffffffffffffffffffffffffffffffffffff8316620015b9576040517fdaa78c0f0000000000000000000000000000000000000000000000000000000081526000600482015273ffffffffffffffffffffffffffffffffffffffff82169063daa78c0f9084906024016000604051808303818588803b158015620015a457600080fd5b505af115801562000916573d6000803e3d6000fd5b620015c683828462002b6d565b505050565b60025473ffffffffffffffffffffffffffffffffffffffff16156200164d576040517f08c379a000000000000000000000000000000000000000000000000000000000815260206004820152601160248201527f436f4669583a21696e697469616c697a650000000000000000000000000000006044820152606401620009c9565b600280547fffffffffffffffffffffffff00000000000000000000000000000000000000001673ffffffffffffffffffffffffffffffffffffffff92909216919091179055565b600454600090819073ffffffffffffffffffffffffffffffffffffffff16331462001742576040517f08c379a000000000000000000000000000000000000000000000000000000000815260206004820152602560248201527f436f466958416e63686f72506f6f6c3a204f6e6c7920666f7220436f4669585260448201527f6f757465720000000000000000000000000000000000000000000000000000006064820152608401620009c9565b6004547d010000000000000000000000000000000000000000000000000000000000900460ff1615620017d2576040517f08c379a000000000000000000000000000000000000000000000000000000000815260206004820152601760248201527f436f466958416e63686f72506f6f6c3a204c4f434b45440000000000000000006044820152606401620009c9565b600480547fffff00ffffffffffffffffffffffffffffffffffffffffffffffffffffffffff167d0100000000000000000000000000000000000000000000000000000000001790558415620018a9576040517f08c379a0000000000000000000000000000000000000000000000000000000008152602060048201526024808201527f436f466958416e63686f72506f6f6c3a20696e76616c6964206173736574207260448201527f6174696f000000000000000000000000000000000000000000000000000000006064820152608401620009c9565b73ffffffffffffffffffffffffffffffffffffffff8716620018de57620018d860008462000ad9873462003205565b6200192a565b34156200192a5760405173ffffffffffffffffffffffffffffffffffffffff8416903480156108fc02916000818181858888f1935050505015801562001928573d6000803e3d6000fd5b505b73ffffffffffffffffffffffffffffffffffffffff8716600090815260066020526040812054600590620019619060019062003205565b81548110620019745762001974620032ff565b600091825260209091206003909102016001810154815473ffffffffffffffffffffffffffffffffffffffff909116945090915083906340c10f199089907401000000000000000000000000000000000000000090046bffffffffffffffffffffffff16620019ec89670de0b6b3a7640000620031c5565b620019f89190620031ae565b6040517fffffffff0000000000000000000000000000000000000000000000000000000060e085901b16815273ffffffffffffffffffffffffffffffffffffffff90921660048301526024820152604401602060405180830381600087803b15801562001a6457600080fd5b505af115801562001a79573d6000803e3d6000fd5b505050506040513d601f19601f8201168201806040525081019062001a9f91906200308f565b6040805173ffffffffffffffffffffffffffffffffffffffff808c1682528a16602082015290810188905260608101879052608081018290529092507f458f5fa412d0f69b08dd84872b0215675cc67bc1d5b6fd93300a1c3878b861969060a00160405180910390a1805462001b8e9082907401000000000000000000000000000000000000000090046bffffffffffffffffffffffff1662001b428b620021dc565b62001b5690670de0b6b3a7640000620031c5565b62001b629190620031ae565b600454760100000000000000000000000000000000000000000000900466ffffffffffffff1662002904565b5050600480547fffff00ffffffffffffffffffffffffffffffffffffffffffffffffffffffffff16905590969095509350505050565b600454600090819073ffffffffffffffffffffffffffffffffffffffff16331462001c72576040517f08c379a000000000000000000000000000000000000000000000000000000000815260206004820152602560248201527f436f466958416e63686f72506f6f6c3a204f6e6c7920666f7220436f4669585260448201527f6f757465720000000000000000000000000000000000000000000000000000006064820152608401620009c9565b6004547d010000000000000000000000000000000000000000000000000000000000900460ff161562001d02576040517f08c379a000000000000000000000000000000000000000000000000000000000815260206004820152601760248201527f436f466958416e63686f72506f6f6c3a204c4f434b45440000000000000000006044820152606401620009c9565b600480547fffff00ffffffffffffffffffffffffffffffffffffffffffffffffffffffffff167d010000000000000000000000000000000000000000000000000000000000179055341562001d965760405173ffffffffffffffffffffffffffffffffffffffff8416903480156108fc02916000818181858888f1935050505015801562001d94573d6000803e3d6000fd5b505b73ffffffffffffffffffffffffffffffffffffffff861660009081526006602052604081205460059062001dcd9060019062003205565b8154811062001de05762001de0620032ff565b6000918252602090912060039091020180549091507401000000000000000000000000000000000000000090046bffffffffffffffffffffffff168062001e3087670de0b6b3a7640000620031c5565b62001e3c9190620031ae565b60018301546040517f42966c68000000000000000000000000000000000000000000000000000000008152600481018990526000965091945073ffffffffffffffffffffffffffffffffffffffff16906342966c6890602401600060405180830381600087803b15801562001eb057600080fd5b505af115801562001ec5573d6000803e3d6000fd5b50506040805173ffffffffffffffffffffffffffffffffffffffff808d1682528b16602082015290810189905260608101879052608081018690527f4cf25bc1d991c17529c25213d3cc0cda295eeaad5f13f361969b12ea48015f90925060a001905060405180910390a162001f4986898362001f428c620021dc565b8b620022aa565b5050600480547fffff00ffffffffffffffffffffffffffffffffffffffffffffffffffffffffff169055909590945092505050565b60025473ffffffffffffffffffffffffffffffffffffffff16338114806200204957506040517f91e1472b0000000000000000000000000000000000000000000000000000000081523360048201526000602482015273ffffffffffffffffffffffffffffffffffffffff8216906391e1472b9060440160206040518083038186803b1580156200200e57600080fd5b505afa15801562002023573d6000803e3d6000fd5b505050506040513d601f19601f8201168201806040525081019062002049919062003012565b620020b1576040517f08c379a000000000000000000000000000000000000000000000000000000000815260206004820152600a60248201527f436f4669583a21676f76000000000000000000000000000000000000000000006044820152606401620009c9565b600280547fffffffffffffffffffffffff00000000000000000000000000000000000000001673ffffffffffffffffffffffffffffffffffffffff8416908117909155604080517f746b56f9000000000000000000000000000000000000000000000000000000008152905163746b56f99160048082019260c092909190829003018186803b1580156200214457600080fd5b505afa15801562002159573d6000803e3d6000fd5b505050506040513d601f19601f820116820180604052508101906200217f919062002d97565b50506001805473ffffffffffffffffffffffffffffffffffffffff9485167fffffffffffffffffffffffff000000000000000000000000000000000000000091821617909155600080549590941694169390931790915550505050565b600073ffffffffffffffffffffffffffffffffffffffff821662002201575047919050565b6040517f70a0823100000000000000000000000000000000000000000000000000000000815230600482015273ffffffffffffffffffffffffffffffffffffffff8316906370a082319060240160206040518083038186803b1580156200226757600080fd5b505afa1580156200227c573d6000803e3d6000fd5b505050506040513d601f19601f82011682018060405250810190620022a291906200308f565b90505b919050565b841562002516576000670de0b6b3a7640000620022c88588620031c5565b620022d49190620031ae565b73ffffffffffffffffffffffffffffffffffffffff8616600090815260066020526040812054919250906005906200230f9060019062003205565b81548110620023225762002322620032ff565b906000526020600020906003020190508382116200238a57620023478684846200288a565b8054620023819082907401000000000000000000000000000000000000000090046bffffffffffffffffffffffff1662001b4289620021dc565b50505062002516565b620023978684866200288a565b8054620023d19082907401000000000000000000000000000000000000000090046bffffffffffffffffffffffff1662001b4289620021dc565b5084620023e785670de0b6b3a7640000620031c5565b620023f39190620031ae565b620023ff908862003205565b600554909750600090815b818110156200250b576000600582815481106200242b576200242b620032ff565b60009182526020909120600390910201805490915073ffffffffffffffffffffffffffffffffffffffff908116908b168114620024f55760006200246f82620021dc565b83549091507401000000000000000000000000000000000000000090046bffffffffffffffffffffffff1680620024af83670de0b6b3a7640000620031c5565b620024bb9190620031ae565b871015620024f257809b50819a50829c508082670de0b6b3a7640000620024e39190620031c5565b620024ef9190620031ae565b96505b50505b50508062002503906200324e565b90506200240a565b5050505050620022aa565b5050505050565b6040805181815260608181018352916000919060208201818036833701905050905060005b6200254f600a856200328a565b6200255c90603062003193565b60f81b82826200256c816200324e565b935081518110620025815762002581620032ff565b60200101907effffffffffffffffffffffffffffffffffffffffffffffffffffffffffffff1916908160001a905350620025bd600a85620031ae565b935060008411620025425760008167ffffffffffffffff811115620025e657620025e66200332e565b6040519080825280601f01601f19166020018201604052801562002611576020820181803683370190505b50905060005b82811015620026b0578360016200262f838662003205565b6200263b919062003205565b815181106200264e576200264e620032ff565b602001015160f81c60f81b8282815181106200266e576200266e620032ff565b60200101907effffffffffffffffffffffffffffffffffffffffffffffffffffffffffffff1916908160001a905350620026a8816200324e565b905062002617565b50949350505050565b8051825160609184918491600091620026d3919062003193565b67ffffffffffffffff811115620026ee57620026ee6200332e565b6040519080825280601f01601f19166020018201604052801562002719576020820181803683370190505b509050806000805b8551811015620027cd57858181518110620027405762002740620032ff565b01602001517fff0000000000000000000000000000000000000000000000000000000000000016838362002774816200324e565b945081518110620027895762002789620032ff565b60200101907effffffffffffffffffffffffffffffffffffffffffffffffffffffffffffff1916908160001a90535080620027c4816200324e565b91505062002721565b5060005b84518110156200287d57848181518110620027f057620027f0620032ff565b01602001517fff0000000000000000000000000000000000000000000000000000000000000016838362002824816200324e565b945081518110620028395762002839620032ff565b60200101907effffffffffffffffffffffffffffffffffffffffffffffffffffffffffffff1916908160001a9053508062002874816200324e565b915050620027d1565b5091979650505050505050565b8015620015c65773ffffffffffffffffffffffffffffffffffffffff8316620028f75760405173ffffffffffffffffffffffffffffffffffffffff83169082156108fc029083906000818181858888f19350505050158015620028f1573d6000803e3d6000fd5b50505050565b620015c683838362002b6d565b6000808460010160009054906101000a900473ffffffffffffffffffffffffffffffffffffffff1673ffffffffffffffffffffffffffffffffffffffff166318160ddd6040518163ffffffff1660e01b815260040160206040518083038186803b1580156200297257600080fd5b505afa15801562002987573d6000803e3d6000fd5b505050506040513d601f19601f82011682018060405250810190620029ad91906200308f565b90506000848211620029cb57620029c5828662003205565b620029d7565b620029d7858362003205565b60028701549091506e01000000000000000000000000000081046dffffffffffffffffffffffffffff1690600090633b9aca009062002a3d907c0100000000000000000000000000000000000000000000000000000000900463ffffffff164362003205565b62002a498885620031c5565b62002a559190620031c5565b62002a619190620031ae565b600289015462002a8291906dffffffffffffffffffffffffffff1662003193565b90508282111562002ac3578162002a9a848262003205565b62002aa69083620031c5565b62002ab29190620031ae565b945062002ac0858262003205565b90505b60029790970180546dffffffffffffffffffffffffffff9889167fffffffff00000000000000000000000000000000000000000000000000000000909116176e0100000000000000000000000000009390981692909202969096177bffffffffffffffffffffffffffffffffffffffffffffffffffffffff167c01000000000000000000000000000000000000000000000000000000004363ffffffff1602179055509392505050565b6040805173ffffffffffffffffffffffffffffffffffffffff8481166024830152604480830185905283518084039091018152606490920183526020820180517bffffffffffffffffffffffffffffffffffffffffffffffffffffffff167fa9059cbb00000000000000000000000000000000000000000000000000000000179052915160009283929087169162002c06919062003125565b6000604051808303816000865af19150503d806000811462002c45576040519150601f19603f3d011682016040523d82523d6000602084013e62002c4a565b606091505b509150915081801562002c7857508051158062002c7857508080602001905181019062002c78919062003012565b62002516576040517f08c379a000000000000000000000000000000000000000000000000000000000815260206004820152601f60248201527f5472616e7366657248656c7065723a205452414e534645525f4641494c4544006044820152606401620009c9565b610c24806200338483390190565b60008083601f84011262002d0157600080fd5b50813567ffffffffffffffff81111562002d1a57600080fd5b6020830191508360208260051b850101111562002d3657600080fd5b9250929050565b803561ffff81168114620022a557600080fd5b60006020828403121562002d6357600080fd5b813562002d70816200335d565b9392505050565b60006020828403121562002d8a57600080fd5b815162002d70816200335d565b60008060008060008060c0878903121562002db157600080fd5b865162002dbe816200335d565b602088015190965062002dd1816200335d565b604088015190955062002de4816200335d565b606088015190945062002df7816200335d565b608088015190935062002e0a816200335d565b60a088015190925062002e1d816200335d565b809150509295509295509295565b6000806000806080858703121562002e4257600080fd5b843562002e4f816200335d565b9350602085013562002e61816200335d565b925060408501359150606085013562002e7a816200335d565b939692955090935050565b600080600080600060a0868803121562002e9e57600080fd5b853562002eab816200335d565b9450602086013562002ebd816200335d565b935060408601359250606086013562002ed6816200335d565b9150608086013562002ee8816200335d565b809150509295509295909350565b600080600080600060a0868803121562002f0f57600080fd5b853562002f1c816200335d565b9450602086013562002f2e816200335d565b93506040860135925060608601359150608086013562002ee8816200335d565b6000806040838503121562002f6257600080fd5b823562002f6f816200335d565b946020939093013593505050565b6000806000806000806080878903121562002f9757600080fd5b863562002fa4816200335d565b955060208701359450604087013567ffffffffffffffff8082111562002fc957600080fd5b62002fd78a838b0162002cee565b9096509450606089013591508082111562002ff157600080fd5b506200300089828a0162002cee565b979a9699509497509295939492505050565b6000602082840312156200302557600080fd5b8151801515811462002d7057600080fd5b6000806000606084860312156200304c57600080fd5b620030578462002d3d565b9250620030676020850162002d3d565b9150604084013566ffffffffffffff811681146200308457600080fd5b809150509250925092565b600060208284031215620030a257600080fd5b5051919050565b600060208284031215620030bc57600080fd5b81356bffffffffffffffffffffffff8116811462002d7057600080fd5b60008151808452620030f38160208601602086016200321f565b601f017fffffffffffffffffffffffffffffffffffffffffffffffffffffffffffffffe0169290920160200192915050565b60008251620031398184602087016200321f565b9190910192915050565b606081526000620031586060830186620030d9565b82810360208401526200316c8186620030d9565b91505073ffffffffffffffffffffffffffffffffffffffff83166040830152949350505050565b60008219821115620031a957620031a9620032a1565b500190565b600082620031c057620031c0620032d0565b500490565b6000817fffffffffffffffffffffffffffffffffffffffffffffffffffffffffffffffff0483118215151615620032005762003200620032a1565b500290565b6000828210156200321a576200321a620032a1565b500390565b60005b838110156200323c57818101518382015260200162003222565b83811115620028f15750506000910152565b60007fffffffffffffffffffffffffffffffffffffffffffffffffffffffffffffffff821415620032835762003283620032a1565b5060010190565b6000826200329c576200329c620032d0565b500690565b7f4e487b7100000000000000000000000000000000000000000000000000000000600052601160045260246000fd5b7f4e487b7100000000000000000000000000000000000000000000000000000000600052601260045260246000fd5b7f4e487b7100000000000000000000000000000000000000000000000000000000600052603260045260246000fd5b7f4e487b7100000000000000000000000000000000000000000000000000000000600052604160045260246000fd5b73ffffffffffffffffffffffffffffffffffffffff811681146200338057600080fd5b5056fe60a06040523480156200001157600080fd5b5060405162000c2438038062000c248339810160408190526200003491620001d6565b82516200004990600390602086019062000079565b5081516200005f90600490602085019062000079565b5060601b6001600160601b03191660805250620002b69050565b828054620000879062000263565b90600052602060002090601f016020900481019282620000ab5760008555620000f6565b82601f10620000c657805160ff1916838001178555620000f6565b82800160010185558215620000f6579182015b82811115620000f6578251825591602001919060010190620000d9565b506200010492915062000108565b5090565b5b8082111562000104576000815560010162000109565b600082601f8301126200013157600080fd5b81516001600160401b03808211156200014e576200014e620002a0565b604051601f8301601f19908116603f01168101908282118183101715620001795762000179620002a0565b816040528381526020925086838588010111156200019657600080fd5b600091505b83821015620001ba57858201830151818301840152908201906200019b565b83821115620001cc5760008385830101525b9695505050505050565b600080600060608486031215620001ec57600080fd5b83516001600160401b03808211156200020457600080fd5b62000212878388016200011f565b945060208601519150808211156200022957600080fd5b5062000238868287016200011f565b604086015190935090506001600160a01b03811681146200025857600080fd5b809150509250925092565b600181811c908216806200027857607f821691505b602082108114156200029a57634e487b7160e01b600052602260045260246000fd5b50919050565b634e487b7160e01b600052604160045260246000fd5b60805160601c61094f620002d56000396000610379015261094f6000f3fe608060405234801561001057600080fd5b50600436106100c95760003560e01c806340c10f191161008157806395d89b411161005b57806395d89b411461019b578063a9059cbb146101a3578063dd62ed3e146101b657600080fd5b806340c10f191461015357806342966c681461016657806370a082311461017b57600080fd5b806318160ddd116100b257806318160ddd1461010f57806323b872dd14610126578063313ce5671461013957600080fd5b806306fdde03146100ce578063095ea7b3146100ec575b600080fd5b6100d66101e1565b6040516100e391906107fa565b60405180910390f35b6100ff6100fa3660046107b7565b61026f565b60405190151581526020016100e3565b61011860005481565b6040519081526020016100e3565b6100ff61013436600461077b565b610285565b610141601281565b60405160ff90911681526020016100e3565b6101186101613660046107b7565b61035f565b6101796101743660046107e1565b61043a565b005b610118610189366004610726565b60016020526000908152604090205481565b6100d6610447565b6100ff6101b13660046107b7565b610454565b6101186101c4366004610748565b600260209081526000928352604080842090915290825290205481565b600380546101ee9061089c565b80601f016020809104026020016040519081016040528092919081815260200182805461021a9061089c565b80156102675780601f1061023c57610100808354040283529160200191610267565b820191906000526020600020905b81548152906001019060200180831161024a57829003601f168201915b505050505081565b600061027c338484610461565b50600192915050565b73ffffffffffffffffffffffffffffffffffffffff831660009081526002602090815260408083203384529091528120547fffffffffffffffffffffffffffffffffffffffffffffffffffffffffffffffff1461034a5773ffffffffffffffffffffffffffffffffffffffff84166000908152600260209081526040808320338452909152902054610318908390610885565b73ffffffffffffffffffffffffffffffffffffffff851660009081526002602090815260408083203384529091529020555b6103558484846104d0565b5060019392505050565b60003373ffffffffffffffffffffffffffffffffffffffff7f0000000000000000000000000000000000000000000000000000000000000000161461042a576040517f08c379a000000000000000000000000000000000000000000000000000000000815260206004820152602a60248201527f436f466958416e63686f72546f6b656e3a204f6e6c7920666f7220436f46695860448201527f416e63686f72506f6f6c00000000000000000000000000000000000000000000606482015260840160405180910390fd5b610434838361059f565b50919050565b610444338261064a565b50565b600480546101ee9061089c565b600061027c3384846104d0565b73ffffffffffffffffffffffffffffffffffffffff83811660008181526002602090815260408083209487168084529482529182902085905590518481527f8c5be1e5ebec7d5bd14f71427d1e84f3dd0314c0f7b2291e5b200ac8c7c3b92591015b60405180910390a3505050565b73ffffffffffffffffffffffffffffffffffffffff8316600090815260016020526040902054610501908290610885565b73ffffffffffffffffffffffffffffffffffffffff808516600090815260016020526040808220939093559084168152205461053e90829061086d565b73ffffffffffffffffffffffffffffffffffffffff80841660008181526001602052604090819020939093559151908516907fddf252ad1be2c89b69c2b068fc378daa952ba7f163c4a11628f55a4df523b3ef906104c39085815260200190565b806000546105ad919061086d565b600090815573ffffffffffffffffffffffffffffffffffffffff83168152600160205260409020546105e090829061086d565b73ffffffffffffffffffffffffffffffffffffffff83166000818152600160205260408082209390935591519091907fddf252ad1be2c89b69c2b068fc378daa952ba7f163c4a11628f55a4df523b3ef9061063e9085815260200190565b60405180910390a35050565b73ffffffffffffffffffffffffffffffffffffffff821660009081526001602052604090205461067b908290610885565b73ffffffffffffffffffffffffffffffffffffffff8316600090815260016020526040812091909155546106b0908290610885565b600090815560405182815273ffffffffffffffffffffffffffffffffffffffff8416907fddf252ad1be2c89b69c2b068fc378daa952ba7f163c4a11628f55a4df523b3ef9060200161063e565b803573ffffffffffffffffffffffffffffffffffffffff8116811461072157600080fd5b919050565b60006020828403121561073857600080fd5b610741826106fd565b9392505050565b6000806040838503121561075b57600080fd5b610764836106fd565b9150610772602084016106fd565b90509250929050565b60008060006060848603121561079057600080fd5b610799846106fd565b92506107a7602085016106fd565b9150604084013590509250925092565b600080604083850312156107ca57600080fd5b6107d3836106fd565b946020939093013593505050565b6000602082840312156107f357600080fd5b5035919050565b600060208083528351808285015260005b818110156108275785810183015185820160400152820161080b565b81811115610839576000604083870101525b50601f017fffffffffffffffffffffffffffffffffffffffffffffffffffffffffffffffe016929092016040019392505050565b60008219821115610880576108806108ea565b500190565b600082821015610897576108976108ea565b500390565b600181811c908216806108b057607f821691505b60208210811415610434577f4e487b7100000000000000000000000000000000000000000000000000000000600052602260045260246000fd5b7f4e487b7100000000000000000000000000000000000000000000000000000000600052601160045260246000fdfea2646970667358221220f90c4e0e7a13d0070efe6cfa9601c893db625bda4d41b39892eebed9721b708f64736f6c63430008060033a26469706673582212209b471291ebb001fb32a3fd35b0b4da7f50f0d819d7232c229816d3470e1e83dc64736f6c63430008060033",
  "linkReferences": {},
  "deployedLinkReferences": {}
}